:100000000C9434000C9451000C9451000C94510049
:100010000C9451000C9451000C9451000C9451001C
:100020000C9451000C94A9010C9451000C945100B3
:100030000C9451000C9451000C9451000C945100FC
:100040000C943D030C9451000C94D4040C94510076
:100050000C9451000C9453000C9451000C945100DA
:100060000C9451000C94510011241FBECFEFD8E026
:10007000DEBFCDBF11E0A0E0B1E0E2EAF1E102C0F5
:1000800005900D92A830B107D9F713E0A8E0B1E0D0
:1000900001C01D92A83FB107E1F70E9491080C949E
:1000A000CF080C9400001F920F920FB60F921124EC
:1000B0000F900FBE0F901F90189590917A00976047
:1000C00090937A0090917C00906490937C008823B8
:1000D00029F080917C00806280937C0080917A007E
:1000E000806280937A0080917A00806880937A00A1
:1000F00080917A00886080937A00789480917C0067
:10010000807F80937C0080917A00806480937A0065
:100110000895EAE7F0E080818F7B808308959091D5
:100120007A009F7B90937A008430C1F185306CF423
:100130008130C9F082301CF4882389F05DC08230A0
:10014000D9F0833009F058C020C08630C9F186301C
:100150004CF18730F1F1883009F04EC043C08091F6
:100160007C00807F47C080917C00816080937C0010
:1001700080917C00817F3EC080917C008E7F809347
:100180007C0080917C00826003C080917C00836051
:1001900080937C0080917C00837F2CC080917C00C8
:1001A0008C7F08C080917C00816080937C0080916E
:1001B0007C008D7F80937C0080917C0084600CC0EB
:1001C00080917C008E7F80937C0080917C00866093
:1001D00003C080917C00876080937C0080917C00CC
:1001E000877F08C080917C00887F80937C0080910D
:1001F0007C00886080937C0080917A00806480938A
:100200007A0008950E946C0482E00E94840381E0D9
:100210000E945D000E940D020E94CD03529A5A9ADC
:10022000559A569A8BB18F798BB978940E94980120
:100230000E94C0020895009781F46130710551F465
:100240008091D003813071F10E94EA0381E08093B4
:10025000D00308951092D00308958130910581F460
:100260006130710551F48091D1038130D9F00E9441
:10027000F20381E08093D10308951092D103089591
:100280008230910579F46130710551F48091D20387
:10029000813041F00E94FA0381E08093D2030895F7
:1002A0001092D20308954B9B0CC04C9B0AC08091C6
:1002B000D6038F5F8093D6038B30B8F182E090E055
:1002C00029C01092D60382E090E060E070E00E94C6
:1002D0001B014B9B0CC08091D4038F5F8093D40390
:1002E0008B3068F080E090E061E070E006C0109232
:1002F000D40380E090E060E070E00E941B014C9B22
:100300000CC08091D5038F5F8093D5038B3068F04C
:1003100081E090E061E070E006C01092D50381E0DA
:1003200090E060E070E00E941B0189B189B10895FE
:100330008AB1877E8AB91092B200E1EBF0E0808149
:1003400084608083E0E7F0E080818160808378943E
:1003500008951F920F920FB60F9211242F933F937F
:100360004F935F936F937F938F939F93AF93BF93BD
:10037000EF93FF930E945301FF91EF91BF91AF91D3
:100380009F918F917F916F915F914F913F912F91AD
:100390000F900FBE0F901F901895823469F084342F
:1003A000A9F42AB181E090E002C0880F991F6A95F4
:1003B000E2F7282B2AB9089524B181E090E002C029
:1003C000880F991F6A95E2F7282B24B90895823483
:1003D00099F0843409F52BB181E090E002C0880FD8
:1003E000991F6A95E2F7442319F0282B2BB9089539
:1003F000809582238BB9089525B181E090E002C0F9
:10040000880F991F6A95E2F7442319F0282B25B924
:1004100008958095822385B908951092B90088E4E3
:100420008093B8000895813039F0813018F082301F
:1004300061F406C084EA01C084E88093BC0005C072
:1004400084E98093BC0080E008958091BC0087FF20
:10045000FCCF8091B900887F0895DF92EF92FF92E0
:100460000F931F93182F062FF72ED42E83E3E82E19
:10047000EA9409F454C080E00E9413028833C1F367
:10048000883019F0803109F03FC01093BB0081E043
:100490000E941302803261F3883351F38831A1F551
:1004A000DD2011F080E601C080E48093BB0081E094
:1004B0000E941302883241F50093BB0081E00E9444
:1004C0001302883209F5F092BB0081E00E9413020A
:1004D0008832D1F4DD2011F080E601C080E4809301
:1004E000BB0081E00E941302883271F40093BB00CC
:1004F00081E00E941302883239F4F092BB0081E05F
:100500000E941302883211F01FEF01C011E082E057
:100510000E941302812F992787FD909502C08FEFCB
:100520009FEF1F910F91FF90EF90DF9008950F9331
:100530001F9313E3082F01601150E9F080E00E943F
:1005400013028833C9F3883011F0803189F40093A5
:10055000BB0081E00E941302803271F3883361F3A3
:10056000883131F48091BB0080930D0110920E010F
:1005700082E00E9413028FEF9FEF1F910F91089569
:1005800016BC85B5826085BDEEE6F0E080818160B5
:10059000808378948EE594E09093E8038093E7035A
:1005A00085E694E09093EA038093E90387E694E07C
:1005B0009093EC038093EB0389E694E09093EE0331
:1005C0008093ED031092F7030E945E048093EF0383
:1005D00008951F93CF93DF931091F703C7EED3E0F5
:1005E000143040F01092F703E091E703F091E80334
:1005F00009953EC0E12FF0E0E951FC4F808588234A
:1006000039F56091F3037091F4038091F5039091B3
:10061000F60320E030E040E85FE30E9454069B01CF
:10062000F82FE92F462F532F682F792F4C875D879E
:100630006E877F87822F932FAF2FBE2FBC01CD01F6
:1006400020E034E244E75AE40E94C00687FD11C06E
:100650001F5F1093F703C12FD0E0FE01EE0FFF1FC5
:10066000E951FC4F0190F081E02D0995C951DC4F13
:100670008887DF91CF911F9108951F920F920FB637
:100680000F9211242F933F934F935F936F937F9318
:100690008F939F93AF93BF93EF93FF930E94E902D1
:1006A000FF91EF91BF91AF919F918F917F916F914A
:1006B0005F914F913F912F910F900FBE0F901F9020
:1006C000189585B5836085BD84B5816084BD559AD4
:1006D000569A0895E1E8F0E0808183608083E0E845
:1006E000F0E0808189608083219A229A0895E1EB6D
:1006F000F0E0808184608083E0EBF0E080818160C5
:100700008083539A239A0895813079F082301CF4C3
:10071000882331F012C0823059F0833071F40BC05D
:100720000E9461030E946A0306C00E94610305C023
:100730000E946A0302C00E9477037894089594B5DA
:10074000906894BD87BD089594B5906294BD88BDAE
:100750000895E0E8F0E020812068208390938900EC
:10076000809388000895E0E8F0E0208120622083F3
:1007700090938B0080938A000895E0EBF0E09081E5
:10078000906890838093B3000895E0EBF0E090814F
:10079000906290838093B400089584B184B9519895
:1007A00082E462E070E00E94CD0182E461E070E0EA
:1007B0000E94CD0182E464E070E00E94CD0182E4F9
:1007C00063E070E00E94CD0182E465E070E00E9489
:1007D000CD010895809113018B3F18F48B5F8093B6
:1007E0001301089580911301853018F0855080938E
:1007F00013010895089580910901869580930C0155
:10080000809179008093D3031092080133C0209126
:1008100079008091090130E090E08C599F4F821758
:10082000930744F48091790090910C018695890F8B
:100830008093D303209179008091090130E090E00A
:10084000845690402817390744F48091790090919C
:100850000C018695890F8093D303E0910801F0E0A5
:100860008091D303E952FC4F8083809108018F5F10
:100870008093080180910801813148F210920801AB
:1008800010C090910901E0910801F0E0E952FC4F9D
:100890008081890F80930901809108018F5F809387
:1008A000080180910801813160F3809109018295EE
:1008B0008F7080930901809109010895809113013F
:1008C00090E00E94A90381E0089581E0089581E00D
:1008D000089581E00895FFCFE1ECF0E08081886128
:1008E0008083A2ECB0E08C9186608C9387E6809345
:1008F000C4001092C5008081806880837894089538
:100900009091C00095FFFCCF8093C6008091C000FD
:1009100085FFFCCF8AE08093C60008952091C00037
:1009200025FFFCCF8093C6008091C00085FFFCCFDF
:100930009093C6008091C00085FFFCCF8AE0809331
:10094000C6000895FC0106C09091C00095FFFCCF41
:100950008093C60081918823B9F78091C00085FFFC
:10096000FCCF8AE08093C60008958091C100806822
:100970008093C100789483B7816083BF889583B7E3
:100980008E7F83BFF89480910A0190910B010097AC
:1009900019F48091CF0304C08D5E9E4FFC018081CD
:1009A0008D3009F48AE008951F920F920FB60F92CE
:1009B00011242F938F939F93EF93FF9380910A01BC
:1009C00090910B012091C600FC01EC5EFE4F20834C
:1009D000019690930B0180930A0122E08C3B9207D1
:1009E00021F410920B0110920A01FF91EF919F9157
:1009F0008F912F910F900FBE0F901F901895A0E030
:100A0000B0E0E5E0F5E00C949A08EC014B01FA0146
:100A10008881823008F442C1DB019C91923008F455
:100A20003AC1843059F4943009F038C19981119653
:100A30008C911197981709F02BC130C1943009F4AB
:100A40002AC19230A9F4823009F028C1CE0128E0F1
:100A5000DC010D90CD01DA010D92AD012150C1F7FD
:100A6000D40111968C91119799818923818315C1A5
:100A7000823009F410C1AA80BB80DB0112964D912F
:100A80005C911397CC80DD80EE80FF8014960D91F1
:100A90001D912D913C911797C501841B950BDC018D
:100AA00097FF04C0AA27BB27A81BB90BA032B1052A
:100AB0000CF06AC0181619068CF5280139010A2EA7
:100AC00004C076946794579447940A94D2F741E00F
:100AD00050E060E070E004C0440F551F661F771FB0
:100AE000AA95D2F7415050406040704040235123B6
:100AF0006223732381E090E0A0E0B0E0411551054E
:100B00006105710521F480E090E0A0E0B0E08C0187
:100B10009D01042915292629372942C0009709F487
:100B20003FC0AA0EBB1E260137010A2E04C07694D0
:100B30006794579447940A94D2F741E050E060E0FC
:100B400070E004C0440F551F661F771FAA95D2F7A7
:100B500041505040604070404C215D216E217F210A
:100B600081E090E0A0E0B0E041155105610571051C
:100B700021F480E090E0A0E0B0E06C017D01C428A9
:100B8000D528E628F7280CC04A155B052CF400E0B0
:100B900010E020E030E004C05A01CC24DD247601CE
:100BA0008981D40111969C911197891709F445C048
:100BB000882329F00C191D092E093F0908C0D70107
:100BC000C601801B910BA20BB30B8C019D0137FD5D
:100BD00004C01182B382A2820BC081E08183B38200
:100BE000A28230952095109501951F4F2F4F3F4FB2
:100BF00004831583268337830DC0880F991FAA1F8E
:100C0000BB1F84839583A683B783828193810197D9
:100C10009383828384819581A681B781AC01BD01D4
:100C200041505040604070404F3F2FEF52072FEF30
:100C300062072FE3720708F30BC08183B382A2829D
:100C40000C0D1D1D2E1D3F1D048315832683378328
:100C500083E08083448155816681778177FF1DC061
:100C6000DB01CA0181709070A070B07076956795B5
:100C700057954795842B952BA62BB72B848395836B
:100C8000A683B7838281938101969383828305C073
:100C9000C0E0D1E003C0E40101C0EF01CE01CDB757
:100CA000DEB7E0E10C94B608A0E2B0E0EAE5F6E0D9
:100CB0000C94A808DC01CB018D839E83AF83B88799
:100CC00029833A834B835C83CE010596BE01675E20
:100CD0007F4F0E94CB07CE010196BE016F5E7F4F12
:100CE0000E94CB07CE014996BE016F5E7F4FAE01D9
:100CF000475F5F4F0E94FF040E94F106462F572F67
:100D0000682F792FCB01BA01A096E2E00C94C408B9
:100D1000A0E2B0E0EEE8F6E00C94A808DC01CB011C
:100D20008D839E83AF83B88729833A834B835C830B
:100D3000CE010596BE01675E7F4F0E94CB07CE01B4
:100D40000196BE016F5E7F4F0E94CB078A8991E0BA
:100D500089278A8BCE014996BE016F5E7F4FAE0117
:100D6000475F5F4F0E94FF040E94F106462F572FF6
:100D7000682F792FCB01BA01A096E2E00C94C40849
:100D8000A8E1B0E0E6ECF6E00C94A808DC01CB01A9
:100D90008D839E83AF83B88729833A834B835C839B
:100DA000CE010596BE016F5E7F4F0E94CB07CE013C
:100DB0000196BE01675F7F4F0E94CB078989823011
:100DC00058F08985823040F0CE014196BE01675FC0
:100DD0007F4F0E94340801C08FEF6896E2E00C94C8
:100DE000C408CF92DF92EF92FF920F931F93DC0122
:100DF00014964D915D916D917C9117971196EC91A0
:100E000011978C91823020F460618FEF90E0A8C040
:100E1000843009F49FC0823009F496C04115510511
:100E20006105710509F493C012968D919C911397F9
:100E30002FEF823892070CF05BC022E83FEF281BAF
:100E4000390B2A3131056CF56A017B01022E04C091
:100E5000F694E794D794C7940A94D2F781E090E08F
:100E6000A0E0B0E004C0880F991FAA1FBB1F2A95FD
:100E7000D2F70197A109B10984239523A623B723AB
:100E800041E050E060E070E00097A105B10521F479
:100E900040E050E060E070E04C295D296E297F2938
:100EA00004C040E050E060E070E0DB01CA018F77F1
:100EB0009070A070B07080349105A105B10539F42F
:100EC00047FF09C0405C5F4F6F4F7F4F04C0415CDC
:100ED0005F4F6F4F7F4F81E090E0403020E052073E
:100EE00020E0620720E4720738F580E090E024C03B
:100EF000803891057CF58A019B010F771070207076
:100F00003070003411052105310539F447FF09C05F
:100F1000405C5F4F6F4F7F4F04C0415C5F4F6F4F2E
:100F20007F4F77FD03C081589F4F06C07695679528
:100F30005795479580589F4F97E0769567955795B9
:100F400047959A95D1F70CC080E090E005C080E00D
:100F500090E006C08FEF90E040E050E060E070E08D
:100F6000982F979599279795A62FAF77E795EE2716
:100F7000E79586953A2F392B282F2E2B842F952FE6
:100F8000A32FB22FBC01CD011F910F91FF90EF90C5
:100F9000DF90CF900895DC01FB014C9111965C919C
:100FA000119712968C911297682F6F7770E0982F97
:100FB000991F9927991F13962C911397822F880FA9
:100FC000892B90E0221F2227221F2183009739F5C9
:100FD000411551056105710511F482E029C082E8CF
:100FE0009FEF9383828327E0440F551F661F771F6F
:100FF0002A95D1F783E0808309C0440F551F661FEF
:10100000771F82819381019793838283403080E0B0
:10101000580780E0680780E4780778F320C08F3FA6
:10102000910579F4411551056105710519F484E0C4
:101030008083089564FF03C081E0808310C0108224
:101040000EC08F5790409383828383E0808387E034
:10105000440F551F661F771F8A95D1F7706444832C
:1010600055836683778308951F93FC01DB0190818C
:10107000923008F44CC08C91823008F448C094300F
:1010800069F42181843039F411968C91119790E0A4
:10109000821B910944C02223D1F13FC0843021F04A
:1010A000923041F48230B1F111968C9111978823DE
:1010B000A1F12DC01181823001F111968C9111970F
:1010C0001817D9F48281938112962D913C91139730
:1010D0002817390794F082179307BCF04481558193
:1010E0006681778114968D919D910D90BC91A02D74
:1010F00084179507A607B70718F4112341F00DC010
:10110000481759076A077B0728F4112331F081E05B
:1011100090E005C080E090E002C08FEF9FEF1F914C
:1011200008950E9402010E9498010E94C002FFCF10
:101130002F923F924F925F926F927F928F929F92E7
:10114000AF92BF92CF92DF92EF92FF920F931F93D5
:10115000CF93DF93CDB7DEB7CA1BDB0B0FB6F89486
:10116000DEBF0FBECDBF09942A88398848885F84C6
:101170006E847D848C849B84AA84B984C884DF8037
:10118000EE80FD800C811B81AA81B981CE0FD11D1B
:101190000FB6F894DEBF0FBECDBFED010895F894F1
:0211A000FFCF7F
:0811A200000000000000000045
:00000001FF
