:100000000C9434000C9451000C9451000C94510049
:100010000C9451000C9451000C9451000C9451001C
:100020000C9451000C9451000C9451000C9451000C
:100030000C9451000C9451000C9451000C945100FC
:100040000C9451000C9451000C9451000C945100EC
:100050000C9451000C9453000C9451000C945100DA
:100060000C9451000C94510011241FBECFEFD8E026
:10007000DEBFCDBF11E0A0E0B1E0E6E4F3E002C0F6
:1000800005900D92A030B107D9F711E0A0E0B1E0E2
:1000900001C01D92A030B107E1F70E9400010C944D
:1000A000A1010C9400001F920F920FB60F92112421
:1000B0000F900FBE0F901F901895AAE7B0E08C919B
:1000C00087608C93ECE7F0E080818064808380819E
:1000D000806280838C9180628C938C9180688C93F9
:1000E0008C9188608C937894EAE7F0E0808180645A
:1000F00080830895EAE7F0E080818F7B8083089514
:100100009C0180917A008F7B80937A0024303105A6
:1001100009F442C0253031058CF42130310509F154
:10012000223031051CF4232BC1F064C0223031058C
:1001300009F12330310509F05DC025C026303105B5
:10014000E9F12630310564F12730310509F43FC06B
:100150002830310509F04EC043C080917C00807F7B
:1001600047C080917C00816080937C0080917C00FE
:10017000817F3EC080917C008E7F80937C00809147
:100180007C00826003C080917C00836080937C004F
:1001900080917C00837F2CC080917C008C7F08C084
:1001A00080917C00816080937C0080917C008D7FB9
:1001B00080937C0080917C0084600CC080917C00E6
:1001C0008E7F80937C0080917C00866003C080914C
:1001D0007C00876080937C0080917C00877F08C0D2
:1001E00080917C00887F80937C0080917C00886077
:1001F00080937C0080917A00806480937A000895D7
:10020000CF93DF93529A5A9A0E942F010E945D0069
:1002100085B185B985B185B9C0E9D1E080E090E0CC
:100220000E94800084EF91E0FE013197F1F7019781
:10023000D9F78091790090E00E94700181E090E010
:100240000E94800084EF91E0FE013197F1F7019761
:10025000D9F78091790090E00E947A01DFCF85B5CF
:10026000836085BD84B5816084BD559A569AE1E866
:10027000F0E0808183608083E0E8F0E0808181604D
:100280008083219A229AE1EBF0E080818460808370
:10029000E0EBF0E0808181608083539A239A089597
:1002A00085B5836085BD84B5816084BD559A569AB5
:1002B000089594B5906894BD87BD089594B59062F3
:1002C00094BD88BD0895E1E8F0E08081836080837B
:1002D000E0E8F0E0808181608083219A229A08958D
:1002E000E0E8F0E0208120682083909389008093EB
:1002F00088000895E0E8F0E0208120622083909358
:100300008B0080938A000895E1EBF0E080818460A7
:100310008083E0EBF0E0808181608083539A239AB0
:100320000895E0EBF0E09081906890838093B300B3
:100330000895E0EBF0E09081906290838093B400A8
:060340000895F894FFCFC0
:00000001FF
