:100000000C9434000C9451000C9451000C94510049
:100010000C9451000C9451000C9451000C9451001C
:100020000C9451000C9451000C9451000C9451000C
:100030000C9451000C9451000C9451000C945100FC
:100040000C9451000C9451000C9495020C945100A6
:100050000C9451000C9453000C9451000C945100DA
:100060000C9451000C94510011241FBECFEFD8E026
:10007000DEBFCDBF11E0A0E0B1E0E2E8F5E002C0F4
:1000800005900D92A830B107D9F713E0A8E0B1E0D0
:1000900001C01D92AA3CB107E1F70E94BD010C947A
:1000A000BF020C9400001F920F920FB60F92112402
:1000B0000F900FBE0F901F90189590917A00976047
:1000C00090937A0090917C00906490937C008823B8
:1000D00029F080917C00806280937C0080917A007E
:1000E000806280937A0080917A00806880937A00A1
:1000F00080917A00886080937A00789480917A0069
:10010000806480937A000895EAE7F0E080818F7B35
:10011000808308959C0180917A008F7B80937A0080
:100120002430310509F442C0253031058CF42130EA
:10013000310509F1223031051CF4232BC1F064C0D4
:100140002230310509F12330310509F05DC025C0A9
:1001500026303105E9F12630310564F127303105CB
:1001600009F43FC02830310509F04EC043C08091EA
:100170007C00807F47C080917C00816080937C0000
:1001800080917C00817F3EC080917C008E7F809337
:100190007C0080917C00826003C080917C00836041
:1001A00080937C0080917C00837F2CC080917C00B8
:1001B0008C7F08C080917C00816080937C0080915E
:1001C0007C008D7F80937C0080917C0084600CC0DB
:1001D00080917C008E7F80937C0080917C00866083
:1001E00003C080917C00876080937C0080917C00BC
:1001F000877F08C080917C00887F80937C008091FD
:100200007C00886080937C0080917A008064809379
:100210007A0008951092B90088E48093B800089598
:10022000813039F0813018F0823061F406C084EA00
:1002300001C084E88093BC0005C084E98093BC00C1
:1002400080E008958091BC0087FFFCCF8091B900C9
:10025000887F0895DF92EF92FF920F931F93082FEC
:10026000E62ED72EF42E10E01F5F133319F42FEF74
:100270003FEF53C080E00E9410018833A9F388301B
:1002800019F0803109F041C00093BB0081E00E9469
:100290001001803249F3883339F38831B1F5FF20FA
:1002A00011F080E401C080E68093BB0081E00E94F1
:1002B0001001883251F5E092BB0081E00E941001EC
:1002C000883219F5D092BB0081E00E94100188327B
:1002D000E1F4FF2011F080E401C080E68093BB00D0
:1002E00081E00E941001883281F4E092BB0081E03D
:1002F0000E941001883249F4D092BB0081E00E9434
:100300001001883211F411E001C01FEF82E00E9459
:100310001001212F332727FD3095C9011F910F911F
:10032000FF90EF90DF9008950F931F9310E0082F38
:1003300001601F5F1333E9F080E00E9410018833F1
:10034000C1F3883011F0803189F40093BB0081E063
:100350000E941001803269F3883359F3883131F4F7
:100360008091BB00809308011092090182E00E94F5
:1003700010018FEF1F910F9108950F931F93CF934B
:10038000DF93529A5A9A0E94E50180E00E945D0034
:100390000E9457020E940A0180E091E00E946B02D5
:1003A0000E9477028091780090917900D92FC0E067
:1003B0008E01080F111D80EC90E0B80140E00E9412
:1003C0002A01C8010E942602EDCF85B5836085BD54
:1003D00084B5816084BD559A569AE1E8F0E0808149
:1003E00083608083E0E8F0E0808181608083219AEF
:1003F000229AE1EBF0E0808184608083E0EBF0E022
:10040000808181608083539A239A089585B58360A3
:1004100085BD84B5816084BD559A569A089594B57A
:10042000906894BD87BD089594B5906294BD88BDD1
:100430000895E1E8F0E0808183608083E0E8F0E007
:10044000808181608083219A229A0895E0E8F0E01B
:1004500020812068208390938900809388000895EC
:10046000E0E8F0E020812062208390938B0080936D
:100470008A000895E1EBF0E0808184608083E0EB06
:10048000F0E0808181608083539A239A0895E0EBA5
:10049000F0E09081906890838093B3000895E0EB42
:1004A000F0E09081906290838093B4000895A1EC75
:1004B000B0E08C9188618C93E2ECF0E08081866002
:1004C000808387E68093C4001092C5008C91806879
:1004D0008C9378940895982F07C08091C00085FF71
:1004E000FCCF9093C6009F5F9923B9F70895809140
:1004F000C10080688093C100789483B7816083BF16
:10050000889583B78E7F83BFF894E0910C01F091BA
:100510000D01309719F48091C90303C0E35FFE4FCA
:1005200080818D3009F48AE008951F920F920FB6F2
:100530000F9211242F938F939F93EF93FF938091AA
:100540000C0190910D012091C600FC01E25FFE4F6D
:100550002083019690930D0180930C018C5B924057
:1005600021F410920D0110920C01FF91EF919F91D7
:100570008F912F910F900FBE0F901F901895F894A8
:02058000FFCFAB
:0805820068656C6C6F0D0A0046
:00000001FF
