:100000000C9434000C9451000C9451000C94510049
:100010000C9451000C9451000C9451000C9451001C
:100020000C9451000C9451000C9451000C9451000C
:100030000C9451000C9451000C9451000C945100FC
:100040000C9451000C9451000C944D020C945100EE
:100050000C9451000C9453000C9451000C945100DA
:100060000C9451000C94510011241FBECFEFD8E026
:10007000DEBFCDBF11E0A0E0B1E0EEEBF4E002C0E6
:1000800005900D92A830B107D9F711E0A8E0B1E0D2
:1000900001C01D92A930B107E1F70E9494010C94B0
:1000A0005D020C9400001F920F920FB60F92112464
:1000B0000F900FBE0F901F90189590917A00976047
:1000C00090937A0090917C00906490937C008823B8
:1000D00029F080917C00806280937C0080917A007E
:1000E000806280937A0080917A00806880937A00A1
:1000F00080917A00886080937A00789480917A0069
:10010000806480937A000895EAE7F0E080818F7B35
:10011000808308959C0180917A008F7B80937A0080
:100120002430310509F442C0253031058CF42130EA
:10013000310509F1223031051CF4232BC1F064C0D4
:100140002230310509F12330310509F05DC025C0A9
:1001500026303105E9F12630310564F127303105CB
:1001600009F43FC02830310509F04EC043C08091EA
:100170007C00807F47C080917C00816080937C0000
:1001800080917C00817F3EC080917C008E7F809337
:100190007C0080917C00826003C080917C00836041
:1001A00080937C0080917C00837F2CC080917C00B8
:1001B0008C7F08C080917C00816080937C0080915E
:1001C0007C008D7F80937C0080917C0084600CC0DB
:1001D00080917C008E7F80937C0080917C00866083
:1001E00003C080917C00876080937C0080917C00BC
:1001F000877F08C080917C00887F80937C008091FD
:100200007C00886080937C0080917A008064809379
:100210007A0008951092B90088E48093B800089598
:10022000813039F0813018F0823061F406C084EA00
:1002300001C084E88093BC0005C084E98093BC00C1
:1002400080E008958091BC0087FFFCCF8091B900C9
:10025000887F0895DF92EF92FF920F931F93082FEC
:10026000E62ED72EF42E10E01F5F133319F42FEF74
:100270003FEF53C080E00E9410018833A9F388301B
:1002800019F0803109F041C00093BB0081E00E9469
:100290001001803249F3883339F38831B1F5FF20FA
:1002A00011F080E401C080E68093BB0081E00E94F1
:1002B0001001883251F5E092BB0081E00E941001EC
:1002C000883219F5D092BB0081E00E94100188327B
:1002D000E1F4FF2011F080E401C080E68093BB00D0
:1002E00081E00E941001883281F4E092BB0081E03D
:1002F0000E941001883249F4D092BB0081E00E9434
:100300001001883211F411E001C01FEF82E00E9459
:100310001001212F332727FD3095C9011F910F911F
:10032000FF90EF90DF9008950F931F93CF93DF938B
:10033000529A5A9A0E94BA0180E00E945D000E947F
:100340002C020E940A0180E091E00E94400280910C
:10035000780090917900D92FC0E08E01080F111D0F
:1003600080EC90E0B80140E00E942A01C8010E94A0
:10037000FB01EDCF85B5836085BD84B5816084BD0B
:10038000559A569AE1E8F0E0808183608083E0E846
:10039000F0E0808181608083219A229AE1EBF0E095
:1003A000808184608083E0EBF0E0808181608083E5
:1003B000539A239A089585B5836085BD84B581607D
:1003C00084BD559A569A089594B5906894BD87BD9A
:1003D000089594B5906294BD88BD0895E1E8F0E079
:1003E000808183608083E0E8F0E0808181608083A9
:1003F000219A229A0895E0E8F0E020812068208385
:1004000090938900809388000895E0E8F0E02081CF
:100410002062208390938B0080938A000895E1EB03
:10042000F0E0808184608083E0EBF0E08081816097
:100430008083539A239A0895E0EBF0E090819068CE
:1004400090838093B3000895E0EBF0E09081906298
:1004500090838093B4000895A1ECB0E08C91886102
:100460008C93E2ECF0E080818660808387E6809365
:10047000C4001092C5008C9180688C937894089584
:10048000FC0107C08091C00085FFFCCF9093C6009F
:10049000319690819923B1F708951F920F920FB66C
:1004A0000F9211248F938091C600809308018F9141
:0E04B0000F900FBE0F901F901895F894FFCF7D
:0804BE0068656C6C6F0D0A000B
:00000001FF
