:100000000C9434000C9451000C9451000C94510049
:100010000C9451000C9451000C9451000C9451001C
:100020000C9451000C9451000C9451000C9451000C
:100030000C9451000C9451000C9451000C945100FC
:100040000C9451000C9451000C94F7020C94510044
:100050000C9451000C9453000C9451000C945100DA
:100060000C9451000C94510011241FBECFEFD8E026
:10007000DEBFCDBF11E0A0E0B1E0E2ECFBE002C0EA
:1000800005900D92A232B107D9F711E0A2E2B1E0DA
:1000900001C01D92A332B107E1F70E9421020C9426
:1000A000DF050C9400001F920F920FB60F921124DF
:1000B0000F900FBE0F901F90189590917A00976047
:1000C00090937A0090917C00906490937C009927A3
:1000D00087FD90958050914029F480917C0080624A
:1000E00080937C0080917A00806280937A00809176
:1000F0007A00806880937A0080917A00886080938B
:100100007A00789480917A00806480937A000895D0
:10011000EAE7F0E080818F7B808308959C018091E5
:100120007A008F7B80937A002430310509F442C035
:10013000253031058CF42130310509F122303105AB
:100140001CF4232BC1F064C02230310509F12330A7
:10015000310509F05DC025C026303105E9F12630B2
:10016000310564F12730310509F43FC028303105ED
:1001700009F04EC043C080917C00807F47C08091D1
:100180007C00816080937C0080917C00817F3EC0F8
:1001900080917C008E7F80937C0080917C008260C7
:1001A00003C080917C00836080937C0080917C0000
:1001B000837F2CC080917C008C7F08C080917C0064
:1001C000816080937C0080917C008D7F80937C0097
:1001D00080917C0084600CC080917C008E7F809335
:1001E0007C0080917C00866003C080917C008760E9
:1001F00080937C0080917C00877F08C080917C0088
:10020000887F80937C0080917C00886080937C0054
:1002100080917A00806480937A0008951092B900EA
:1002200088E48093B8000895813039F0813018F067
:10023000823061F406C084EA01C084E88093BC0087
:1002400005C084E98093BC0080E008958091BC00E3
:1002500087FFFCCF8091B900887F0895DF92EF92ED
:10026000FF920F931F93F82EE62ED72E042F10E047
:100270001F5F133319F42FEF3FEF59C080E00E9446
:1002800014018833A9F3883019F0803109F047C090
:10029000F092BB0081E00E941401803249F3883360
:1002A00039F38831E1F5402F552747FD509581E01E
:1002B0004530580719F480E48093BB004950514001
:1002C00019F480E68093BB0081E00E94140188321B
:1002D00031F5E092BB0081E00E9414018832F9F40C
:1002E000D092BB0081E00E9414018832C1F480E406
:1002F0008093BB0081E00E941401883281F4E09277
:10030000BB0081E00E941401883249F4D092BB0006
:1003100081E00E941401883211F411E001C01FEF46
:1003200082E00E941401212F332727FD3095C90157
:100330001F910F91FF90EF90DF900895EF92FF9241
:100340000F931F93082FF62EE72E10E01F5F133335
:1003500019F42FEF3FEF49C080E00E941401883369
:10036000A9F3883011F08031C1F50093BB0081E022
:100370000E941401803251F3883341F3883169F5CA
:1003800010E61093BB0081E00E941401883229F529
:10039000F092BB0081E00E9414018832F1F4E092F7
:1003A000BB0081E00E9414018832B9F41093BB00B5
:1003B00081E00E941401883281F4F092BB0081E058
:1003C0000E941401883249F4E092BB0081E00E944F
:1003D0001401883211F411E001C01FEF82E00E9485
:1003E0001401212F332727FD3095C9011F910F914B
:1003F000FF90EF9008950F931F9310E0082F016076
:100400001F5F1333C9F080E00E9414018833C1F3E9
:10041000883011F0803169F40093BB0081E00E94C4
:100420001401803269F3883359F3883111F48091D3
:10043000BB0082E00E9414018FEF9FEF1F910F918C
:100440000895CF92DF92EF92FF920F931F93CF9375
:10045000DF93529A5A9A0E94640280E191E00E94CE
:100460005D000E94D6020E940E0181E191E00E948F
:10047000EA0297E1C92E91E0D92E8AE1E82E81E0C7
:10048000F82E8091780090917900D92FC0E08E01EC
:10049000080F111D00D000D0EDB7FEB7D282C18287
:1004A000148303830E9407030F900F900F900F9007
:1004B0000E94EA0280EC90E0B8014E2D0E942E01CD
:1004C000C8010E94A502DDCF85B5836085BD84B5D6
:1004D000816084BD559A569AE1E8F0E0808183609E
:1004E0008083E0E8F0E0808181608083219A229A15
:1004F000E1EBF0E0808184608083E0EBF0E08081DC
:1005000081608083539A239A089585B5836085BD61
:1005100084B5816084BD559A569A089594B59068C3
:1005200094BD87BD089594B5906294BD88BD08952B
:10053000E1E8F0E0808183608083E0E8F0E08081A2
:1005400081608083219A229A0895E0E8F0E020817A
:100550002068208390938900809388000895E0E8C4
:10056000F0E020812062208390938B0080938A00AA
:100570000895E1EBF0E0808184608083E0EBF0E0BF
:10058000808181608083539A239A0895E0EBF0E0A4
:100590009081906890838093B3000895E0EBF0E041
:1005A0009081906290838093B4000895A1ECB0E0B4
:1005B0008C9188618C93E2ECF0E08081866080838E
:1005C00087E68093C4001092C5008C9180688C935C
:1005D00078940895FC0107C08091C00085FFFCCF8E
:1005E0009093C600319690819923B1F708951F9298
:1005F0000F920FB60F9211248F938091C6008093B3
:1006000022018F910F900FBE0F901F901895AEE0B2
:10061000B0E0EDE0F3E00C94B6050D891E8986E0AC
:100620008C831A8309838FEF9FE79E838D839E01BE
:10063000275E3F4FCE0101966F89788DA9010E94F8
:100640002B032F813885020F131FF80110822E967D
:10065000E4E00C94D205ABE0B0E0E1E3F3E00C940D
:10066000A8053C012B015A01FC01178216828381E7
:1006700081FD03C06FEF7FEFC6C19AE0892E1E0196
:100680000894211C311CF3012381F20123FD859183
:1006900023FF81912F01882309F4B2C1853239F4F7
:1006A00023FD859123FF81912F01853229F490E06C
:1006B000B3010E941E05E7CF982FFF24EE24992452
:1006C000FFE1FF15D0F09B3269F09C3228F49032A4
:1006D00059F0933291F40EC09D3249F0903369F491
:1006E00041E024C052E0F52A84E0F82A28C098E0CE
:1006F000F92A25C0E0E1FE2A22C0F7FC29C0892F93
:1007000080538A3070F4F6FE05C0989C902C11241A
:10071000980E15C0E89CE02C1124E80EF0E2FF2AA8
:100720000EC09E3229F4F6FC6BC140E4F42A07C0E7
:100730009C3619F450E8F52A02C0983649F4F201C3
:1007400023FD959123FF91912F01992309F0B8CFB3
:10075000892F8554833018F08052833038F444E078
:1007600050E0A40EB51E5FE359830FC0933631F0FD
:10077000933779F0933509F056C020C0F501808198
:10078000898342E050E0A40EB51E610101E010E053
:1007900012C0F501C080D180F6FC03C06FEF7FEF7F
:1007A00002C0692D70E042E050E0A40EB51EC60103
:1007B0000E9413058C015FE7F52214C0F501C0808B
:1007C000D180F6FC03C06FEF7FEF02C0692D70E0AF
:1007D00042E050E0A40EB51EC6010E9408058C013F
:1007E00050E8F52AF3FE07C01AC080E290E0B3019A
:1007F0000E941E05EA948E2D90E008171907A8F3B1
:100800000EC0F601F7FC8591F7FE81916F0190E033
:10081000B3010E941E05E110EA9401501040011539
:10082000110579F7EAC0943611F0993669F5F7FEAB
:1008300008C0F501208131814281538184E090E03C
:100840000AC0F501808191819C01442737FD4095C4
:10085000542F82E090E0A80EB91E9FE6F92257FFC0
:1008600009C050954095309521953F4F4F4F5F4FB0
:10087000E0E8FE2ACA01B901A1012AE030E00E94A5
:100880004A05D82ED21840C0953729F41F2D1F7E57
:100890002AE030E01DC01F2D197F9F3661F0903790
:1008A00020F4983509F0ACC00FC0903739F0983774
:1008B00009F0A6C004C028E030E00AC0106114FDB1
:1008C000146020E130E004C014FD166020E132E045
:1008D00017FF08C0F501608171818281938144E036
:1008E00050E008C0F50180819181BC0180E090E07A
:1008F00042E050E0A40EB51EA1010E944A05D82E88
:10090000D2188FE7F82EF122F6FE0BC05EEFF5222B
:10091000D91438F4F4FE07C0F2FC05C08FEEF822BB
:1009200002C01D2D01C0192DF4FE0DC0FE01ED0DFC
:10093000F11D8081803319F499EEF92208C01F5F00
:10094000F2FE05C003C08F2D867809F01F5F0F2DC2
:10095000F3FC14C0F0FE0FC01E1510F09D2C0BC050
:100960009D2C9E0C911A1E2D06C080E290E0B301D2
:100970000E941E051F5F1E15C0F304C01E1510F453
:10098000E11A01C0EE2404FF0FC080E390E0B30140
:100990000E941E0502FF1DC001FD03C088E790E014
:1009A0000EC088E590E00BC0802F867891F001FFA3
:1009B00002C08BE201C080E2F7FC8DE290E0B3015F
:1009C0000E941E0506C080E390E0B3010E941E0550
:1009D0009A94D914C0F3DA94F101ED0DF11D8081E0
:1009E00090E0B3010E941E05DD20A9F706C080E259
:1009F00090E0B3010E941E05EA94EE20C1F743CEB9
:100A0000F30166817781CB012B96E2E10C94C4055A
:100A1000FC010590615070400110D8F780959095C9
:100A20008E0F9F1F0895FC016150704001900110CE
:100A3000D8F7809590958E0F9F1F08950F931F9361
:100A4000CF93DF938C01EB018B8181FF1BC082FF71
:100A50000DC02E813F818C819D812817390764F458
:100A6000E881F9810193F983E88306C0E885F98577
:100A7000802F0995892B31F48E819F8101969F8368
:100A80008E8302C00FEF1FEFC801DF91CF911F913E
:100A90000F910895FA01AA27283051F1203181F1F0
:100AA000E8946F936E7F6E5F7F4F8F4F9F4FAF4F76
:100AB000B1E03ED0B4E03CD0670F781F891F9A1F89
:100AC000A11D680F791F8A1F911DA11D6A0F711D3D
:100AD000811D911DA11D20D009F468943F912AE049
:100AE000269F11243019305D3193DEF6CF01089531
:100AF000462F4770405D4193B3E00FD0C9F7F6CF62
:100B0000462F4F70405D4A3318F0495D31FD405229
:100B1000419302D0A9F7EACFB4E0A69597958795BF
:100B200077956795BA95C9F700976105710508959E
:100B30009B01AC010A2E069457954795379527954A
:100B4000BA95C9F7620F731F841F951FA01D0895E2
:100B50002F923F924F925F926F927F928F929F92CD
:100B6000AF92BF92CF92DF92EF92FF920F931F93BB
:100B7000CF93DF93CDB7DEB7CA1BDB0B0FB6F8946C
:100B8000DEBF0FBECDBF09942A88398848885F84AC
:100B90006E847D848C849B84AA84B984C884DF801D
:100BA000EE80FD800C811B81AA81B981CE0FD11D01
:100BB0000FB6F894DEBF0FBECDBFED010895F894D7
:020BC000FFCF65
:100BC2006C6566740064616300656570726F6D00C8
:100BD2000068656C6C6F00256900656570726F6DE9
:020BE200000011
:00000001FF
