:100000000C9434000C9451000C9451000C94510049
:100010000C9451000C9462010C9451000C9451000A
:100020000C9451000C9451000C9451000C9451000C
:100030000C9451000C9451000C9451000C945100FC
:100040000C9451000C9451000C945E030C945100DC
:100050000C9451000C9453000C9451000C945100DA
:100060000C9451000C94510011241FBECFEFD8E026
:10007000DEBFCDBF11E0A0E0B1E0E4E1F7E002C0F7
:1000800005900D92A630B107D9F713E0A6E0B1E0D4
:1000900001C01D92AA3CB107E1F70E943F020C94F7
:1000A00088030C9400001F920F920FB60F92112438
:1000B0000F900FBE0F901F90189590917A00976047
:1000C00090937A0090917C00906490937C008823B8
:1000D00029F080917C00806280937C0080917A007E
:1000E000806280937A0080917A00806880937A00A1
:1000F00080917A00886080937A00789480917A0069
:10010000806480937A000895EAE7F0E080818F7B35
:1001100080830895982F80917A008F7B80937A0056
:100120009433C9F1953374F49133D1F0923324F4BC
:10013000903309F05EC010C09233D9F0933309F0C8
:1001400058C020C09633C9F196334CF19733F1F182
:10015000983309F04EC043C080917C00807F47C037
:1001600080917C00816080937C0080917C00817F05
:100170003EC080917C008E7F80937C0080917C00CB
:10018000826003C080917C00836080937C008091BA
:100190007C00837F2CC080917C008C7F08C0809184
:1001A0007C00816080937C0080917C008D7F8093B7
:1001B0007C0080917C0084600CC080917C008E7FEC
:1001C00080937C0080917C00866003C080917C00DD
:1001D000876080937C0080917C00877F08C080913D
:1001E0007C00887F80937C0080917C008860809375
:1001F0007C0080917A00806480937A000895382F83
:10020000662361F425B181E090E002C0880F991F58
:100210003A95E2F78095822385B9089525B181E06A
:1002200090E002C0880F991F3A95E2F7282B25B974
:100230000895382F662361F42BB181E090E002C06D
:10024000880F991F3A95E2F7809582238BB908951C
:100250002BB181E090E002C0880F991F3A95E2F738
:10026000282B2BB908958234B9F0843451F52AB182
:1002700081E090E002C0880F991F6A95E2F7982FFD
:10028000282B2AB9442319F08BB1982B03C08BB1CA
:10029000909598239BB9089524B181E090E002C025
:1002A000880F991F6A95E2F7982F282B24B94423C9
:1002B00021F085B1982B95B9089585B19095982333
:1002C00095B908951F920F920FB60F9211248F9334
:1002D0009F934B9B0CC090E080910601882309F40A
:1002E00091E09093060180E49CE90197F1F74C9B23
:1002F0000CC090E08091C903882309F491E09093A9
:10030000C90380E49CE90197F1F79F918F910F90C9
:100310000FBE0F901F9018951092B90088E480933B
:10032000B8000895813039F0813018F0823061F4DE
:1003300006C084EA01C084E88093BC0005C084E95B
:100340008093BC0080E008958091BC0087FFFCCFC3
:100350008091B900887F0895DF92EF92FF920F930A
:100360001F93082FE62ED72EF42E10E01F5F1333B5
:1003700019F42FEF3FEF53C080E00E9492018833C1
:10038000A9F3883019F0803109F041C00093BB0017
:1003900081E00E949201803249F3883339F3883139
:1003A000B1F5FF2011F080E601C080E48093BB002E
:1003B00081E00E949201883251F5E092BB0081E019
:1003C0000E949201883219F5D092BB0081E00E9410
:1003D00092018832E1F4FF2011F080E601C080E450
:1003E0008093BB0081E00E949201883281F4E09208
:1003F000BB0081E00E949201883249F4D092BB0098
:1004000081E00E949201883211F411E001C01FEFD7
:1004100082E00E949201212F332727FD3095C901E8
:100420001F910F91FF90EF90DF9008950F931F930E
:1004300010E0082F01601F5F1333E9F080E00E9495
:1004400092018833C1F3883011F0803189F4009330
:10045000BB0081E00E949201803269F3883359F336
:10046000883131F48091BB008093090110920A0118
:1004700082E00E9492018FEF1F910F910895529A8E
:100480005A9A0E94750280E00E945D000E94E70275
:100490000E948C018AB18AB980916D008861809335
:1004A0006D008091680084608093680080910601EF
:1004B000882329F082E461E070E041E004C082E436
:1004C00061E070E040E00E9433018091C90388231D
:1004D00029F082E462E070E041E004C082E462E07E
:1004E00070E040E00E943301E1CF85B5836085BDB7
:1004F00084B5816084BD559A569AE1E8F0E0808128
:1005000083608083E0E8F0E0808183608083219ACB
:10051000229AE1EBF0E0808184608083E0EBF0E000
:10052000808181608083539A239A089585B5836082
:1005300085BD84B5816084BD559A569A089594B559
:10054000906894BD87BD089594B5906294BD88BDB0
:100550000895E1E8F0E0808183608083E0E8F0E0E6
:1005600080818A618083219A229A0895E0E8F0E0F0
:1005700020812068208390938900809388000895CB
:10058000E0E8F0E020812062208390938B0080934C
:100590008A000895E1EBF0E0808184608083E0EBE5
:1005A000F0E0808181608083539A239A0895E0EB84
:1005B000F0E09081906890838093B3000895E0EB21
:1005C000F0E09081906290838093B40008958091D0
:1005D000C10088618093C1008091C20086608093D1
:1005E000C20087E68093C4001092C5008091C100CC
:1005F00080688093C10078948091C00085FFFCCF13
:1006000080E091E08093C6000895982F8091C0000B
:1006100085FFFCCF9093C6008091C00085FFFCCF82
:1006200083E091E08093C6000895282F8091C00058
:1006300085FFFCCF2093C6008091C00085FFFCCFD2
:100640009093C6008091C00085FFFCCF83E091E0CD
:100650008093C6000895FC0107C08091C00085FF0B
:10066000FCCF9093C600319690819923B1F7809189
:10067000C00085FFFCCF83E091E08093C600089521
:100680008091C10080688093C100789483B78160B5
:1006900083BF889583B78E7F83BFF894E09107016D
:1006A000F0910801309719F48091C80303C0E45F0A
:1006B000FE4F80818D3009F48AE008951F920F92D9
:1006C0000FB60F9211242F938F939F93EF93FF9365
:1006D00080910701909108012091C600FC01E35F21
:1006E000FE4F2083019690930801809307018C5B55
:1006F000924021F41092080110920701FF91EF91AE
:100700009F918F912F910F900FBE0F901F90189572
:04071000F894FFCF8B
:060714000D0A000A0D00B1
:00000001FF
