:100000000C9434000C9451000C9451000C94510049
:100010000C9451000C9451000C9451000C9451001C
:100020000C9451000C9486010C9451000C945100D6
:100030000C9451000C9451000C9451000C945100FC
:100040000C94FA020C9451000C94A5040C945100E9
:100050000C9451000C9453000C9451000C945100DA
:100060000C9451000C94510011241FBECFEFD8E026
:10007000DEBFCDBF11E0A0E0B1E0E2EBF9E002C0ED
:1000800005900D92A030B107D9F713E0A0E0B1E0E0
:1000900001C01D92A13FB107E1F70E94D0040C946A
:1000A000D7040C9400001F920F920FB60F921124E8
:1000B0000F900FBE0F901F90189590917A00976047
:1000C00090937A0090917C00906490937C008823B8
:1000D00029F080917C00806280937C0080917A007E
:1000E000806280937A0080917A00806880937A00A1
:1000F00080917A00886080937A00789480917C0067
:10010000807F80937C0080917A00806480937A0065
:100110000895EAE7F0E080818F7B808308959091D5
:100120007A009F7B90937A008430C1F185306CF423
:100130008130C9F082301CF4882389F05DC08230A0
:10014000D9F0833009F058C020C08630C9F186301C
:100150004CF18730F1F1883009F04EC043C08091F6
:100160007C00807F47C080917C00816080937C0010
:1001700080917C00817F3EC080917C008E7F809347
:100180007C0080917C00826003C080917C00836051
:1001900080937C0080917C00837F2CC080917C00C8
:1001A0008C7F08C080917C00816080937C0080916E
:1001B0007C008D7F80937C0080917C0084600CC0EB
:1001C00080917C008E7F80937C0080917C00866093
:1001D00003C080917C00876080937C0080917C00CC
:1001E000877F08C080917C00887F80937C0080910D
:1001F0007C00886080937C0080917A00806480938A
:100200007A0008950E943D0482E00E94410381E04B
:100210000E945D000E94EA010E948A03529A5A9A43
:10022000559A569A8BB18F798BB978940E94750143
:100230000E949D02089584E465E070E040E00E9421
:10024000C4010895CF93DF930F92CDB7DEB781300D
:1002500099F4613059F48091C8038130D9F06983F1
:100260000E941B0169816093C80314C01092C803E7
:1002700084E465E070E00BC0823061F484E46130B6
:1002800021F466E070E040E003C066E070E041E029
:100290000E94C4010F90DF91CF9108954B9B0AC03B
:1002A0008091CB038F5F8093CB038B3048F081E04C
:1002B00061E004C01092CB0381E060E00E94220163
:1002C0004C9B0AC08091CC038F5F8093CC038B3012
:1002D00048F082E061E004C01092CC0382E060E06C
:1002E0000E94220189B189B108958AB1877E8AB9B5
:1002F0001092B200E1EBF0E0808184608083E0E75F
:10030000F0E0808181608083789408951F920F923D
:100310000FB60F9211242F933F934F935F936F93D8
:100320007F938F939F93AF93BF93EF93FF930E941D
:100330004E01FF91EF91BF91AF919F918F917F916E
:100340006F915F914F913F912F910F900FBE0F9042
:100350001F901895823469F08434A9F42AB181E0A1
:1003600090E002C0880F991F6A95E2F7282B2AB9FE
:10037000089524B181E090E002C0880F991F6A952A
:10038000E2F7282B24B90895823499F0843409F5D2
:100390002BB181E090E002C0880F991F6A95E2F7C7
:1003A000442319F0282B2BB90895809582238BB90B
:1003B000089525B181E090E002C0880F991F6A95E9
:1003C000E2F7442319F0282B25B90895809582235C
:1003D00085B908951092B90088E48093B800089513
:1003E000813039F0813018F0823061F406C084EA3F
:1003F00001C084E88093BC0005C084E98093BC0000
:1004000080E008958091BC0087FFFCCF8091B90007
:10041000887F0895DF92EF92FF920F931F93182F1A
:10042000062FF72ED42E83E3E82EEA9409F454C065
:1004300080E00E94F0018833C1F3883019F08031E8
:1004400009F03FC01093BB0081E00E94F0018032B0
:1004500061F3883351F38831A1F5DD2011F080E696
:1004600001C080E48093BB0081E00E94F0018832EB
:1004700041F50093BB0081E00E94F001883209F54C
:10048000F092BB0081E00E94F0018832D1F4DD20BF
:1004900011F080E601C080E48093BB0081E00E94FF
:1004A000F001883271F40093BB0081E00E94F001FA
:1004B000883239F4F092BB0081E00E94F00188326A
:1004C00011F01FEF01C011E082E00E94F001812FC6
:1004D000992787FD909502C08FEF9FEF1F910F9195
:1004E000FF90EF90DF9008950F931F9313E3082F71
:1004F00001601150E9F080E00E94F0018833C9F3F7
:10050000883011F0803189F40093BB0081E00E94B3
:10051000F001803271F3883361F3883131F48091D6
:10052000BB00809305011092060182E00E94F00159
:100530008FEF9FEF1F910F91089516BC85B58260D4
:1005400085BDEEE6F0E080818160808378948DE067
:1005500094E09093DD038093DC0384E194E0909336
:10056000DF038093DE038AE294E09093E1038093BB
:10057000E0038BE394E09093E3038093E203109213
:10058000F0030E940D048093E40308951F93CF931A
:10059000DF931091F003153088F006C0E82FF0E0EB
:1005A000E452FC4F10868F5F8530C0F7E091DC038A
:1005B000F091DD0309958093E40310E0E12FF0E072
:1005C000E452FC4F8085882379F01F5FC12FD0E073
:1005D000FE01EE0FFF1FE452FC4F0190F081E02D71
:1005E0000995C452DC4F88871093F003DF91CF91B7
:1005F0001F9108951F920F920FB60F9211242F93FF
:100600003F934F935F936F937F938F939F93AF939A
:10061000BF93EF93FF930E94C602FF91EF91BF91AA
:10062000AF919F918F917F916F915F914F913F918A
:100630002F910F900FBE0F901F90189585B5836076
:1006400085BD84B5816084BD559A569A0895E1E8C8
:10065000F0E0808183608083E0E8F0E08081896061
:100660008083219A229A0895E1EBF0E080818460F2
:100670008083E0EBF0E0808181608083539A239A4D
:100680000895813079F082301CF4882331F012C053
:10069000823059F0833071F40BC00E941E030E9417
:1006A000270306C00E941E0305C00E94270302C044
:1006B0000E9434037894089594B5906894BD87BDE2
:1006C000089594B5906294BD88BD0895E0E8F0E087
:1006D000208120682083909389008093880008956A
:1006E000E0E8F0E020812062208390938B008093EB
:1006F0008A000895E0EBF0E0908190689083809309
:10070000B3000895E0EBF0E09081906290838093D5
:10071000B400089585B7806185BF21988AB18AB9F0
:1007200082E462E070E00E94AA0182E461E070E08D
:100730000E94AA0182E464E070E00E94AA0182E4BF
:1007400063E070E00E94AA0182E465E070E00E942C
:10075000AA010895809101018695809304018091FA
:1007600079008093C9031092000133C02091790071
:100770008091010130E090E08C599F4F82179307E0
:1007800044F480917900909104018695890F8093BB
:10079000C903209179008091010130E090E08456F6
:1007A00090402817390744F4809179009091040112
:1007B0008695890F8093C903E0910001F0E0809154
:1007C000C903E453FC4F8083809100018F5F8093C5
:1007D000000180910001813148F21092000110C0A7
:1007E00090910101E0910001F0E0E453FC4F808121
:1007F000890F80930101809100018F5F8093000138
:1008000080910001813160F38091010182958F70A8
:10081000809301018091010108958091790090E019
:100820000E94660381E0089582E463E070E04F9BDC
:1008300002C040E001C041E00E94C40182E464E0E3
:1008400070E0189B02C040E001C041E00E94C4017A
:1008500081E0089580917900853628F082E465E092
:1008600070E040E004C082E465E070E041E00E9496
:10087000C40181E0089581E00895E1ECF0E0808119
:1008800088618083A2ECB0E08C9186608C9387E6CF
:100890008093C4001092C500808180688083789422
:1008A00008959091C00095FFFCCF8093C600809181
:1008B000C00085FFFCCF8AE08093C6000895209198
:1008C000C00025FFFCCF8093C6008091C00085FF4B
:1008D000FCCF9093C6008091C00085FFFCCF8AE0DA
:1008E0008093C6000895FC0106C09091C00095FF5A
:1008F000FCCF8093C60081918823B9F78091C00016
:1009000085FFFCCF8AE08093C60008958091C100E6
:1009100080688093C100789483B7816083BF889595
:1009200083B78E7F83BFF894809102019091030179
:10093000009719F48091C60304C0865F9E4FFC01A6
:1009400080818D3009F48AE008951F920F920FB6CE
:100950000F9211242F938F939F93EF93FF93809186
:100960000201909103012091C600FC01E55FFE4F5A
:1009700020830196909303018093020122E08C3B37
:10098000920721F41092030110920201FF91EF915E
:100990009F918F912F910F900FBE0F901F901895E0
:1009A0000E9402010E9475010E949D02FFCFF894EF
:0209B000FFCF77
:00000001FF
