:100000000C9434000C9451000C9451000C94510049
:100010000C9451000C9451000C9451000C9451001C
:100020000C9451000C94BF010C9451000C9451009D
:100030000C9451000C9451000C9451000C945100FC
:100040000C9485030C9451000C943B050C945100C6
:100050000C9451000C9453000C9451000C945100DA
:100060000C9451000C94510011241FBECFEFD8E026
:10007000DEBFCDBF11E0A0E0B1E0E6E7F2E102C0F3
:1000800005900D92A431B107D9F714E0A4E1B1E0D5
:1000900001C01D92A830B107E1F70E94F8080C9446
:1000A00039090C9400001F920F920FB60F92112481
:1000B0000F900FBE0F901F90189590917A00976047
:1000C00090937A0090917C00906490937C008823B8
:1000D00029F080917C00806280937C0080917A007E
:1000E000806280937A0080917A00806880937A00A1
:1000F00080917A00886080937A00789480917C0067
:10010000807F80937C0080917A00806480937A0065
:1001100083E00E94D0040895EAE7F0E080818F7BBD
:100120008083089590917A009F7B90937A00843029
:10013000C1F185306CF48130C9F082301CF4882321
:1001400089F05DC08230D9F0833009F058C020C0FA
:100150008630C9F186304CF18730F1F1883009F0F2
:100160004EC043C080917C00807F47C080917C005E
:10017000816080937C0080917C00817F3EC0809173
:100180007C008E7F80937C0080917C00826003C025
:1001900080917C00836080937C0080917C00837FD1
:1001A0002CC080917C008C7F08C080917C00816095
:1001B00080937C0080917C008D7F80937C00809177
:1001C0007C0084600CC080917C008E7F80937C00DA
:1001D00080917C00866003C080917C008760809362
:1001E0007C0080917C00877F08C080917C00887FA4
:1001F00080937C0080917C00886080937C0080915B
:100200007A00806480937A0008950E94DE0482E080
:100210000E94D50381E00E945D000E9423020E949B
:100220002304529A5A9A559A569A8BB18F798BB960
:1002300081E00E94D00478940E94AB010E94D90210
:100240000895009781F46130710551F48091DC03C9
:10025000813071F10E94400481E08093DC030895B5
:100260001092DC0308958130910581F461307105AD
:1002700051F48091DD038130D9F00E94480481E07F
:100280008093DD0308951092DD0308958230910577
:1002900079F46130710551F48091DE03813041F0D1
:1002A0000E94500481E08093DE0308951092DE03E3
:1002B000089529B189B190E08071907030E0287084
:1002C0003070822B932B009719F088E00E94D004A5
:1002D0004B9B0CC04C9B0AC08091E6038F5F8093C0
:1002E000E6038B30B8F182E090E027C01092E6037D
:1002F00082E090E060E070E00E9421014B9B0AC028
:100300008091E4038F5F8093E4038B3058F080E0AA
:1003100090E013C01092E40380E090E060E070E0B1
:100320000E9421014C9B0EC08091E5038F5F80935A
:10033000E5038B3078F081E090E061E070E00E94AE
:10034000210108951092E50381E090E060E070E003
:100350000E94210108958AB1877E8AB91092B20065
:10036000E1EBF0E0808184608083E0E7F0E0808171
:1003700081608083789487E00E94D00408951F9262
:100380000F920FB60F9211242F933F934F935F93C9
:100390006F937F938F939F93AF93BF93EF93FF934D
:1003A0000E945901FF91EF91BF91AF919F918F9161
:1003B0007F916F915F914F913F912F910F900FBE61
:1003C0000F901F901895823469F08434A9F42AB1F3
:1003D00081E090E002C0880F991F6A95E2F7282B10
:1003E0002AB9089524B181E090E002C0880F991FD6
:1003F0006A95E2F7282B24B90895823499F0843461
:1004000009F52BB181E090E002C0880F991F6A9531
:10041000E2F7442319F0282B2BB908958095822305
:100420008BB9089525B181E090E002C0880F991F33
:100430006A95E2F7442319F0282B25B90895809591
:10044000822385B908951092B90088E48093B8009A
:1004500085E00E94D0040895813039F0813018F091
:10046000823061F406C084EA01C084E88093BC0055
:1004700005C084E98093BC0080E008958091BC00B1
:1004800087FFFCCF8091B900887F0895DF92EF92BB
:10049000FF920F931F93182F062FF72ED42E83E36E
:1004A000E82EEA9409F454C080E00E942C028833BC
:1004B000C1F3883019F0803109F03FC01093BB00C0
:1004C00081E00E942C02803261F3883351F388313D
:1004D000A1F5DD2011F080E601C080E48093BB002F
:1004E00081E00E942C02883241F50093BB0081E03C
:1004F0000E942C02883209F5F092BB0081E00E9434
:100500002C028832D1F4DD2011F080E601C080E4B5
:100510008093BB0081E00E942C02883271F400932A
:10052000BB0081E00E942C02883239F4F092BB00BB
:1005300081E00E942C02883211F01FEF01C011E00F
:1005400082E00E942C02812F992787FD909502C09E
:100550008FEF9FEF1F910F91FF90EF90DF90089525
:100560000F931F9313E3082F01601150E9F080E00F
:100570000E942C028833C9F3883011F0803189F44D
:100580000093BB0081E00E942C02803271F388331B
:1005900061F3883131F48091BB008093190110928E
:1005A0001A0182E00E942C028FEF9FEF1F910F91A2
:1005B000089516BC85B5826085BDEEE6F0E08081C9
:1005C00081608083789485E10E94D00484EB94E07C
:1005D0009093F8038093F70380EC94E09093FA03F0
:1005E0008093F90387EC94E09093FC038093FB03E2
:1005F00088EC94E09093FE038093FD0380E094E206
:10060000A4EFB9E48093E0039093E103A093E203A5
:10061000B093E303109207040E94B4048093FF0395
:1006200008951F93CF93DF9310910704143050F077
:100630001092070480E00E94D004E091F703F0914B
:10064000F8035AC0C12FD0E0C950DC4F88858823F9
:1006500011F01F5F43C06091030470910404809106
:1006600005049091060420E030E040E85FE30E943A
:10067000BB06DC01CB018093030490930404A09398
:100680000504B093060480E091E00E9409056091A2
:100690000304709104048091050490910604209154
:1006A000E0033091E1034091E2035091E3030E94A3
:1006B000270787FD23C086E091E00E94090581E0BD
:1006C00088871F5F40E050E060E070E040930304E3
:1006D0005093040460930504709306041093070478
:1006E000812F0E94D004E12FF0E0EE0FFF1FE950B0
:1006F000FC4F0190F081E02D099503C086E10E9436
:10070000D004DF91CF911F9108951F920F920FB6E1
:100710000F9211242F933F934F935F936F937F9387
:100720008F939F93AF93BF93EF93FF930E94110317
:10073000FF91EF91BF91AF919F918F917F916F91B9
:100740005F914F913F912F910F900FBE0F901F908F
:10075000189585B5836085BD84B5816084BD559A43
:10076000569A81E10E94D0040895E1E8F0E080818A
:1007700083608083E0E8F0E0808189608083219A53
:10078000229A82E10E94D0040895E1EBF0E080819A
:1007900084608083E0EBF0E0808181608083539A05
:1007A000239A83E10E94D00408958130A1F0823021
:1007B0001CF4882331F017C0823081F0833099F423
:1007C00010C00E94A9030E94B5030E94C50380E1E6
:1007D0000E94D00408C00E94A90305C00E94B5036E
:1007E00002C00E94C5037894089594B5906894BDA2
:1007F00087BD089594B5906294BD88BD0895E0E8E2
:10080000F0E0208120682083909389008093880005
:100810000895E0E8F0E020812062208390938B002F
:1008200080938A000895E0EBF0E0908190689083D7
:100830008093B3000895E0EBF0E0908190629083A4
:100840008093B400089584B184B9519882E462E041
:1008500070E00E94E30182E461E070E00E94E30145
:1008600082E464E070E00E94E30182E463E070E00F
:100870000E94E30182E465E070E00E94E3010895D4
:1008800080911F018B3F18F48B5F80931F010895A7
:1008900080911F01853018F0855080931F010895C5
:1008A00008958091150186958093180180917900B3
:1008B0008093DF031092140133C02091790080915E
:1008C000150130E090E08C599F4F8217930744F454
:1008D00080917900909118018695890F8093DF03AC
:1008E000209179008091150130E090E0845690408D
:1008F0002817390744F48091790090911801869562
:10090000890F8093DF03E0911401F0E08091DF0311
:10091000E951FC4F8083809114018F5F8093140113
:1009200080911401813148F21092140110C090910D
:100930001501E0911401F0E0E951FC4F8081890F2D
:1009400080931501809114018F5F80931401809131
:100950001401813160F38091150182958F7080932D
:10096000150180911501089580911F0190E00E946A
:10097000FF0380E20E94D00481E08093FF0308958A
:1009800081E20E94D00481E0809300040895FFCFAB
:1009900083E20E94D00481E0809302040895FFCF97
:1009A0009091C00095FFFCCF8093C6008091C0005D
:1009B00085FFFCCF8AE08093C6000895E1ECF0E06B
:1009C000808188618083A2ECB0E08C9186608C93FA
:1009D00087E68093C4001092C50080818068808380
:1009E000789484E00E94D00408952091C00025FFEF
:1009F000FCCF8093C6008091C00085FFFCCF909310
:100A0000C6008091C00085FFFCCF8AE08093C600BD
:100A10000895FC0106C09091C00095FFFCCF809323
:100A2000C60081918823B9F78091C00085FFFCCF73
:100A30008AE08093C60008958091C1008068809309
:100A4000C100789483B7816083BF889583B78E7F18
:100A500083BFF8948091160190911701009719F4C3
:100A60008091DB0304C0815E9E4FFC0180818D304C
:100A700009F48AE008951F920F920FB60F92112485
:100A80002F938F939F93EF93FF93809116019091F3
:100A900017012091C600FC01E05EFE4F2083019605
:100AA000909317018093160122E08C3B920721F46A
:100AB0001092170110921601FF91EF919F918F9163
:100AC0002F910F900FBE0F901F901895A0E0B0E0EF
:100AD000ECE6F5E00C940409EC014B01FA01888185
:100AE000823008F442C1DB019C91923008F43AC193
:100AF000843059F4943009F038C1998111968C9161
:100B00001197981709F02BC130C1943009F42AC10C
:100B10009230A9F4823009F028C1CE0128E0DC012E
:100B20000D90CD01DA010D92AD012150C1F7D40134
:100B300011968C91119799818923818315C18230F7
:100B400009F410C1AA80BB80DB0112964D915C9123
:100B50001397CC80DD80EE80FF8014960D911D915F
:100B60002D913C911797C501841B950BDC0197FFD4
:100B700004C0AA27BB27A81BB90BA032B1050CF0F3
:100B80006AC0181619068CF5280139010A2E04C00E
:100B900076946794579447940A94D2F741E050E0D2
:100BA00060E070E004C0440F551F661F771FAA95D0
:100BB000D2F741505040604070404023512362239F
:100BC000732381E090E0A0E0B0E04115510561059C
:100BD000710521F480E090E0A0E0B0E08C019D017F
:100BE000042915292629372942C0009709F43FC056
:100BF000AA0EBB1E260137010A2E04C07694679404
:100C0000579447940A94D2F741E050E060E070E0D6
:100C100004C0440F551F661F771FAA95D2F7415095
:100C20005040604070404C215D216E217F2181E069
:100C300090E0A0E0B0E0411551056105710521F497
:100C400080E090E0A0E0B0E06C017D01C428D528F0
:100C5000E628F7280CC04A155B052CF400E010E0EC
:100C600020E030E004C05A01CC24DD2476018981E3
:100C7000D40111969C911197891709F445C08823D6
:100C800029F00C191D092E093F0908C0D701C6011A
:100C9000801B910BA20BB30B8C019D0137FD04C08F
:100CA0001182B382A2820BC081E08183B382A282CF
:100CB00030952095109501951F4F2F4F3F4F04837E
:100CC0001583268337830DC0880F991FAA1FBB1F6A
:100CD00084839583A683B7838281938101979383CD
:100CE000828384819581A681B781AC01BD01415089
:100CF0005040604070404F3F2FEF52072FEF620788
:100D00002FE3720708F30BC08183B382A2820C0D1C
:100D10001D1D2E1D3F1D048315832683378383E00D
:100D20008083448155816681778177FF1DC0DB0117
:100D3000CA0181709070A070B070769567955795D4
:100D40004795842B952BA62BB72B84839583A6835D
:100D5000B7838281938101969383828305C0CBE020
:100D6000D1E003C0E40101C0EF01CE01CDB7DEB791
:100D7000E0E10C942009A0E2B0E0E1ECF6E00C9494
:100D80001209DC01CB018D839E83AF83B887298351
:100D90003A834B835C83CE010596BE01675E7F4F2D
:100DA0000E943208CE010196BE016F5E7F4F0E9405
:100DB0003208CE014996BE016F5E7F4FAE01475F9C
:100DC0005F4F0E9466050E945807462F572F682FD5
:100DD000792FCB01BA01A096E2E00C942E09A0E293
:100DE000B0E0E5EFF6E00C941209DC01CB018D8355
:100DF0009E83AF83B88729833A834B835C83CE017C
:100E00000596BE01675E7F4F0E943208CE010196B3
:100E1000BE016F5E7F4F0E9432088A8991E0892768
:100E20008A8BCE014996BE016F5E7F4FAE01475F50
:100E30005F4F0E9466050E945807462F572F682F64
:100E4000792FCB01BA01A096E2E00C942E09A8E11B
:100E5000B0E0EDE2F7E00C941209DC01CB018D83E8
:100E60009E83AF83B88729833A834B835C83CE010B
:100E70000596BE016F5E7F4F0E943208CE0101963B
:100E8000BE01675F7F4F0E9432088989823058F027
:100E90008985823040F0CE014196BE01675F7F4F69
:100EA0000E949B0801C08FEF6896E2E00C942E0927
:100EB000CF92DF92EF92FF920F931F93DC01149673
:100EC0004D915D916D917C9117971196EC911197D1
:100ED0008C91823020F460618FEF90E0A8C0843064
:100EE00009F49FC0823009F496C04115510561058F
:100EF000710509F493C012968D919C9113972FEF71
:100F0000823892070CF05BC022E83FEF281B390BB8
:100F10002A3131056CF56A017B01022E04C0F6947A
:100F2000E794D794C7940A94D2F781E090E0A0E0C8
:100F3000B0E004C0880F991FAA1FBB1F2A95D2F7E3
:100F40000197A109B10984239523A623B72341E082
:100F500050E060E070E00097A105B10521F440E0A9
:100F600050E060E070E04C295D296E297F2904C0C3
:100F700040E050E060E070E0DB01CA018F779070E4
:100F8000A070B07080349105A105B10539F447FF18
:100F900009C0405C5F4F6F4F7F4F04C0415C5F4FA3
:100FA0006F4F7F4F81E090E0403020E0520720E01B
:100FB000620720E4720738F580E090E024C08038B2
:100FC00091057CF58A019B010F77107020703070BD
:100FD000003411052105310539F447FF09C0405C93
:100FE0005F4F6F4F7F4F04C0415C5F4F6F4F7F4F2C
:100FF00077FD03C081589F4F06C07695679557953A
:10100000479580589F4F97E07695679557954795F8
:101010009A95D1F70CC080E090E005C080E090E0A8
:1010200006C08FEF90E040E050E060E070E0982F65
:10103000979599279795A62FAF77E795EE27E79590
:1010400086953A2F392B282F2E2B842F952FA32FBF
:10105000B22FBC01CD011F910F91FF90EF90DF9057
:10106000CF900895DC01FB014C9111965C91119792
:1010700012968C911297682F6F7770E0982F991FB6
:101080009927991F13962C911397822F880F892BDC
:1010900090E0221F2227221F2183009739F5411556
:1010A00051056105710511F482E029C082E89FEFC6
:1010B0009383828327E0440F551F661F771F2A956D
:1010C000D1F783E0808309C0440F551F661F771F47
:1010D00082819381019793838283403080E0580717
:1010E00080E0680780E4780778F320C08F3F91059F
:1010F00079F4411551056105710519F484E0808387
:10110000089564FF03C081E0808310C010820EC088
:101110008F5790409383828383E0808387E0440FDE
:10112000551F661F771F8A95D1F7706444835583D6
:101130006683778308951F93FC01DB0190819230D1
:1011400008F44CC08C91823008F448C0943069F4A3
:101150002181843039F411968C91119790E0821B93
:10116000910944C02223D1F13FC0843021F0923054
:1011700041F48230B1F111968C9111978823A1F13D
:101180002DC01181823001F111968C9111971817A1
:10119000D9F48281938112962D913C91139728174F
:1011A000390794F082179307BCF04481558166811A
:1011B000778114968D919D910D90BC91A02D8417EF
:1011C0009507A607B70718F4112341F00DC048177B
:1011D00059076A077B0728F4112331F081E090E07A
:1011E00005C080E090E002C08FEF9FEF1F9108954F
:1011F0000E94050186E00E94D0040E94AB010E947B
:10120000D902FFCF2F923F924F925F926F927F92BF
:101210008F929F92AF92BF92CF92DF92EF92FF9206
:101220000F931F93CF93DF93CDB7DEB7CA1BDB0BB2
:101230000FB6F894DEBF0FBECDBF09942A88398857
:1012400048885F846E847D848C849B84AA84B9845E
:10125000C884DF80EE80FD800C811B81AA81B9816A
:10126000CE0FD11D0FB6F894DEBF0FBECDBFED017E
:061270000895F894FFCF81
:10127600636F756E740064656164000000000000B1
:041286000000000064
:00000001FF
