:100000000C9434000C9451000C9451000C94510049
:100010000C9451000C9451000C9451000C9451001C
:100020000C9451000C9440010C9451000C9451001C
:100030000C9451000C9451000C9451000C945100FC
:100040000C94A8020C9451000C94CF030C94510012
:100050000C9451000C9453000C9451000C945100DA
:100060000C9451000C94510011241FBECFEFD8E026
:10007000DEBFCDBF11E0A0E0B1E0EEE2F8E002C0EB
:1000800005900D92AE31B107D9F713E0AEE1B1E0C2
:1000900001C01D92A83EB107E1F70E94FA030C943B
:1000A00015040C9400001F920F920FB60F921124AA
:1000B0000F900FBE0F901F90189590917A00976047
:1000C00090937A0090917C00906490937C008823B8
:1000D00029F080917C00806280937C0080917A007E
:1000E000806280937A0080917A00806880937A00A1
:1000F00080917A00886080937A00789480917A0069
:10010000806480937A0083E00E9464030895EAE7A4
:10011000F0E080818F7B8083089590917A009F7BAF
:1001200090937A008430C1F185306CF48130C9F04D
:1001300082301CF4882389F05DC08230D9F083308E
:1001400009F058C020C08630C9F186304CF18730A4
:10015000F1F1883009F04EC043C080917C00807F6F
:1001600047C080917C00816080937C0080917C00FE
:10017000817F3EC080917C008E7F80937C00809147
:100180007C00826003C080917C00836080937C004F
:1001900080917C00837F2CC080917C008C7F08C084
:1001A00080917C00816080937C0080917C008D7FB9
:1001B00080937C0080917C0084600CC080917C00E6
:1001C0008E7F80937C0080917C00866003C080914C
:1001D0007C00876080937C0080917C00877F08C0D2
:1001E00080917C00887F80937C0080917C00886077
:1001F00080937C0080917A00806480937A000895D7
:100200008234B9F0843451F52AB181E090E002C023
:10021000880F991F6A95E2F7382F282B2AB94423B3
:1002200019F08BB1832B03C09BB1809589238BB9C7
:10023000089524B181E090E002C0880F991F6A956B
:10024000E2F7382F282B24B9442321F085B1832BE2
:1002500085B9089595B18095892385B9089510923F
:10026000B200E1EBF0E0808184608083E0E7F0E0C1
:10027000808181608083789487E00E946403089580
:100280001F920F920FB60F9211242F933F934F930B
:100290005F936F937F938F939F93AF93BF93EF93EE
:1002A000FF934B9B0CC08091E6038F5F8093E60326
:1002B000863068F084E465E070E040E006C01092AB
:1002C000E60384E465E070E041E00E940001FF91F4
:1002D000EF91BF91AF919F918F917F916F915F91BE
:1002E0004F913F912F910F900FBE0F901F90189537
:1002F0001092B90088E48093B80085E00E946403FE
:100300000895813039F0813018F0823061F406C0F0
:1003100084EA01C084E88093BC0005C084E980932E
:10032000BC0080E008958091BC0087FFFCCF8091E5
:10033000B900887F0895DF92EF92FF920F931F9389
:10034000182F062FF72ED42E83E3E82EEA9409F413
:1003500054C080E00E9481018833C1F3883019F0D5
:10036000803109F03FC01093BB0081E00E94810101
:10037000803261F3883351F38831A1F5DD2011F02B
:1003800080E601C080E48093BB0081E00E9481018F
:10039000883241F50093BB0081E00E9481018832E0
:1003A00009F5F092BB0081E00E9481018832D1F40E
:1003B000DD2011F080E601C080E48093BB0081E085
:1003C0000E948101883271F40093BB0081E00E9499
:1003D0008101883239F4F092BB0081E00E948101F2
:1003E000883211F01FEF01C011E082E00E9481010C
:1003F000812F992787FD909502C08FEF9FEF1F9166
:100400000F91FF90EF90DF9008950F931F9313E3E8
:10041000082F01601150E9F080E00E9481018833CB
:10042000C9F3883011F0803189F40093BB0081E07A
:100430000E948101803271F3883361F3883131F495
:100440008091BB00809321011092220182E00E94E2
:1004500081018FEF9FEF1F910F910895FFCF82E2EF
:100460000E94640381E08093E503089581E20E9485
:10047000640381E08093E503089580E20E946403B1
:1004800081E08093E5030895CF93DF93CDB7DEB786
:100490002A970FB6F894DEBF0FBECDBF2DE332E032
:1004A0003C832B8326E332E03E832D832FE232E030
:1004B00038872F832EE232E03A872987893619F070
:1004C0008D36E9F519C016BC85B5816085BD809172
:1004D0006E00816080936E00789485E10E946403D1
:1004E00021E02093E50383E090E09093E403809380
:1004F000E3032093E70323C01092E5038091E30315
:100500009091E40301969093E4038093E303843095
:10051000910524F01092E4031092E303E091E303C9
:10052000F091E4033196EE0FFF1FEC0FFD1F0180E9
:10053000F281E02D09958091E3030E9464032A96DD
:100540000FB6F894DEBF0FBECDBFDF91CF910895F7
:100550001F920F920FB60F9211242F933F934F9338
:100560005F936F937F938F939F93AF93BF93EF931B
:10057000FF938091E7038823E1F08091E5038130C8
:1005800031F48DE60E94440210921E0112C0809147
:100590001E018F5F80931E010E94640380911E01E3
:1005A000863038F08DE60E94440280E091E00E949F
:1005B0009D03FF91EF91BF91AF919F918F917F919B
:1005C0006F915F914F913F912F910F900FBE0F90C0
:1005D0001F90189585B5836085BD84B5816084BD05
:1005E000559A569A81E10E9464030895E1E8F0E08B
:1005F000808183608083E0E8F0E080818360808395
:10060000219A229A82E10E9464030895E1EBF0E0CE
:10061000808184608083E0EBF0E080818160808372
:10062000539A239A83E10E94640308958130A1F0D4
:1006300082301CF4882331F017C0823081F083307F
:1006400099F410C00E94EA020E94F6020E9406037A
:1006500080E10E94640308C00E94EA0205C00E9473
:10066000F60202C00E9406037894089594B590683B
:1006700094BD87BD089594B5906294BD88BD0895DA
:10068000E0E8F0E020812068208390938900809347
:1006900088000895E0E8F0E02081206220839093B4
:1006A0008B0080938A000895E0EBF0E090819068E1
:1006B00090838093B3000895E0EBF0E09081906226
:1006C00090838093B40008959091C00095FFFCCF73
:1006D0008093C6008091C00085FFFCCF8AE08093A4
:1006E000C6000895E1ECF0E0808188618083A2EC8F
:1006F000B0E08C9186608C9387E68093C400109262
:10070000C500808180688083789484E00E946403BF
:1007100008952091C00025FFFCCF8093C6008091F2
:10072000C00085FFFCCF9093C6008091C00085FF7C
:10073000FCCF8AE08093C6000895FC0106C090912A
:10074000C00095FFFCCF8093C60081918823B9F744
:100750008091C00085FFFCCF8AE08093C600089599
:100760008091C10080688093C100789483B78160D4
:1007700083BF889583B78E7F83BFF89480911F01D4
:1007800090912001009719F48091E20304C08A5DE2
:100790009E4FFC0180818D3009F48AE008951F92FC
:1007A0000F920FB60F9211242F938F939F93EF9375
:1007B000FF9380911F01909120012091C600FC01C0
:1007C000E95DFE4F208301969093200180931F01E5
:1007D00022E08C3B920721F41092200110921F011D
:1007E000FF91EF919F918F912F910F900FBE0F90DE
:1007F0001F9018950E94720382E00E94160381E008
:100800000E945D000E947801529A5A9A81E00E94EB
:100810006403789486E00E9464038AB18AB90E94D6
:0E0820002F0189E60E944402FFCFF894FFCF1B
:10082E00626164207468726561642E2E2E20666F7C
:0E083E007263696E67206D6F76652E2E2E0038
:00000001FF
