:100000000C9434000C9451000C9451000C94510049
:100010000C9451000C9451000C9451000C9451001C
:100020000C9451000C9451000C9451000C9451000C
:100030000C9451000C9451000C9451000C945100FC
:100040000C9451000C9451000C9451000C945100EC
:100050000C9451000C9453000C9451000C945100DA
:100060000C9451000C94510011241FBECFEFD8E026
:10007000DEBFCDBF11E0A0E0B1E0E4EAF5E002C0F0
:1000800005900D92A630B107D9F711E0A6E0B1E0D6
:1000900001C01D92A630B107E1F70E9417020C942F
:1000A000D0020C9400001F920F920FB60F921124F1
:1000B0000F900FBE0F901F90189590917A00976047
:1000C00090937A0090917C00906490937C009927A3
:1000D00087FD90958050914029F480917C0080624A
:1000E00080937C0080917A00806280937A00809176
:1000F0007A00806880937A0080917A00886080938B
:100100007A00789480917A00806480937A000895D0
:10011000EAE7F0E080818F7B808308959C018091E5
:100120007A008F7B80937A002430310509F442C035
:10013000253031058CF42130310509F122303105AB
:100140001CF4232BC1F064C02230310509F12330A7
:10015000310509F05DC025C026303105E9F12630B2
:10016000310564F12730310509F43FC028303105ED
:1001700009F04EC043C080917C00807F47C08091D1
:100180007C00816080937C0080917C00817F3EC0F8
:1001900080917C008E7F80937C0080917C008260C7
:1001A00003C080917C00836080937C0080917C0000
:1001B000837F2CC080917C008C7F08C080917C0064
:1001C000816080937C0080917C008D7F80937C0097
:1001D00080917C0084600CC080917C008E7F809335
:1001E0007C0080917C00866003C080917C008760E9
:1001F00080937C0080917C00877F08C080917C0088
:10020000887F80937C0080917C00886080937C0054
:1002100080917A00806480937A000895813039F06B
:10022000813018F0823061F406C084EA01C084E8AD
:100230008093BC0005C084E98093BC0080E00895F1
:100240008091BC0087FFFCCF8091B900887F089522
:10025000EF92FF920F931F93082FF62EE72E109226
:10026000B90088E48093B80010E01F5F133319F4DD
:100270002FEF3FEF49C080E00E940E018833A9F3C1
:10028000883011F08031C1F50093BB0081E00E94FD
:100290000E01803251F3883341F3883169F510E45F
:1002A0001093BB0081E00E940E01883229F5F09284
:1002B000BB0081E00E940E018832F1F4E092BB00A5
:1002C00081E00E940E018832B9F41093BB0081E0F6
:1002D0000E940E01883281F4F092BB0081E00E94FE
:1002E0000E01883249F4E092BB0081E00E940E01C9
:1002F000883211F411E001C01FEF82E00E940E016C
:10030000212F332727FD3095C9011F910F91FF90B1
:10031000EF900895EF92FF920F931F93082FF62E00
:10032000E72E1092B90088E48093B80010E01F5FB8
:10033000133319F42FEF3FEF49C080E00E940E0104
:100340008833A9F3883011F08031C1F50093BB00E8
:1003500081E00E940E01803251F3883341F38831ED
:1003600069F510E61093BB0081E00E940E0188320F
:1003700029F5F092BB0081E00E940E018832F1F471
:10038000E092BB0081E00E940E018832B9F4109324
:10039000BB0081E00E940E01883281F4F092BB0024
:1003A00081E00E940E01883249F4E092BB0081E0B6
:1003B0000E940E01883211F411E001C01FEF82E0AB
:1003C0000E940E01212F332727FD3095C9011F916F
:1003D0000F91FF90EF9008950F931F931092B90023
:1003E00098E49093B80010E0082F01601F5F13336A
:1003F000C9F080E00E940E018833C1F3883011F00B
:10040000803169F40093BB0081E00E940E018032CC
:1004100069F3883359F3883111F48091BB0082E08D
:100420000E940E018FEF9FEF1F910F9108958F9201
:100430009F92AF92BF92CF92DF92EF92FF920F9373
:100440001F93DF93CF9300D000D000D0CDB7DEB79D
:10045000529A5A9A0E945E0285E091E00E945D00E5
:10046000299A95E0892E912C8C0E9D1E83E0A82E52
:10047000B12CAC0EBD1E6E010894C11CD11C909114
:10048000780080917900F82EEE24B701690F711D74
:1004900080EC90E00E948A0180EC90E0B401A6011B
:1004A00095010E94EC011B8100E089819A81800FF7
:1004B000911F9A8389830E949F02E1CF85B5836053
:1004C00085BD84B5816084BD559A569AE1E8F0E017
:1004D000808183608083E0E8F0E0808181608083B8
:1004E000219A229AE1EBF0E0808184608083E0EB46
:1004F000F0E0808181608083539A239A089585B5C6
:10050000836085BD84B5816084BD559A569A0895EF
:1005100094B5906894BD87BD089594B5906294BDDC
:1005200088BD0895E1E8F0E0808183608083E0E8A1
:10053000F0E0808181608083219A229A0895E0E82A
:10054000F0E02081206820839093890080938800C8
:100550000895E0E8F0E020812062208390938B00F2
:1005600080938A000895E1EBF0E0808184608083CD
:10057000E0EBF0E0808181608083539A239A0895B4
:10058000E0EBF0E09081906890838093B300089551
:10059000E0EBF0E09081906290838093B400089546
:0405A000F894FFCFFD
:0605A4006C6566740000A6
:00000001FF
