:100000000C9434000C9451000C9451000C94510049
:100010000C9451000C9451000C9451000C9451001C
:100020000C9451000C9451000C9451000C9451000C
:100030000C9451000C9451000C9451000C945100FC
:100040000C9451000C9451000C941A030C94510020
:100050000C9451000C9453000C9451000C945100DA
:100060000C9451000C94510011241FBECFEFD8E026
:10007000DEBFCDBF11E0A0E0B1E0ECE8F6E002C0E9
:1000800005900D92A630B107D9F713E0A6E0B1E0D4
:1000900001C01D92A93CB107E1F70E9419020C941E
:1000A00044030C9400001F920F920FB60F9211247C
:1000B0000F900FBE0F901F90189590917A00976047
:1000C00090937A0090917C00906490937C008823B8
:1000D00029F080917C00806280937C0080917A007E
:1000E000806280937A0080917A00806880937A00A1
:1000F00080917A00886080937A00789480917A0069
:10010000806480937A000895EAE7F0E080818F7B35
:1001100080830895982F80917A008F7B80937A0056
:100120009433C9F1953374F49133D1F0923324F4BC
:10013000903309F05EC010C09233D9F0933309F0C8
:1001400058C020C09633C9F196334CF19733F1F182
:10015000983309F04EC043C080917C00807F47C037
:1001600080917C00816080937C0080917C00817F05
:100170003EC080917C008E7F80937C0080917C00CB
:10018000826003C080917C00836080937C008091BA
:100190007C00837F2CC080917C008C7F08C0809184
:1001A0007C00816080937C0080917C008D7F8093B7
:1001B0007C0080917C0084600CC080917C008E7FEC
:1001C00080937C0080917C00866003C080917C00DD
:1001D000876080937C0080917C00877F08C080913D
:1001E0007C00887F80937C0080917C008860809375
:1001F0007C0080917A00806480937A000895382F83
:10020000672B61F425B181E090E002C0880F991F4F
:100210003A95E2F78095822385B9089525B181E06A
:1002200090E002C0880F991F3A95E2F7282B25B974
:100230000895382F672B61F42BB181E090E002C064
:10024000880F991F3A95E2F7809582238BB908951C
:100250002BB181E090E002C0880F991F3A95E2F738
:10026000282B2BB908958234C9F0843471F54130BC
:10027000510541F48BB102C0440F551F6A95E2F756
:10028000842B0AC02BB181E090E002C0880F991F37
:100290006A95E2F7809582238BB908954130510524
:1002A00049F485B102C0440F551F6A95E2F7842BCB
:1002B00085B9089525B181E090E002C0880F991FAB
:1002C0006A95E2F78095822385B908951092B90066
:1002D00088E48093B8000895813039F0813018F0B7
:1002E000823061F406C084EA01C084E88093BC00D7
:1002F00005C084E98093BC0080E008958091BC0033
:1003000087FFFCCF8091B900887F0895DF92EF923C
:10031000FF920F931F93082FE62ED72EF42E10E096
:100320001F5F133319F42FEF3FEF53C080E00E949B
:100330006C018833A9F3883019F0803109F041C08D
:100340000093BB0081E00E946C01803249F3883346
:1003500039F38831B1F5FF2011F080E601C080E467
:100360008093BB0081E00E946C01883251F5E092DD
:10037000BB0081E00E946C01883219F5D092BB006D
:1003800081E00E946C018832E1F4FF2011F080E6E8
:1003900001C080E48093BB0081E00E946C01883240
:1003A00081F4E092BB0081E00E946C01883249F444
:1003B000D092BB0081E00E946C01883211F411E000
:1003C00001C01FEF82E00E946C01212F332727FD1F
:1003D0003095C9011F910F91FF90EF90DF90089524
:1003E0000F931F9310E0082F01601F5F1333E9F094
:1003F00080E00E946C018833C1F3883011F08031B5
:1004000089F40093BB0081E00E946C01803269F3A3
:10041000883359F3883131F48091BB00809308010F
:100420001092090182E00E946C018FEF1F910F91E1
:100430000895529A5A9A0E94310280E00E945D000B
:100440000E94A3020E94660189B18C70E9F71092A4
:10045000C80382E461E070E040E050E00E943301B4
:10046000F3CF85B5836085BD84B5816084BD559A21
:10047000569AE1E8F0E0808183608083E0E8F0E074
:10048000808183608083219A229AE1EBF0E0808171
:1004900084608083E0EBF0E0808181608083539A08
:1004A000239A089585B5836085BD84B5816084BD38
:1004B000559A569A089594B5906894BD87BD08954D
:1004C00094B5906294BD88BD0895E1E8F0E0808124
:1004D00083608083E0E8F0E080818A618083219AF4
:1004E000229A0895E0E8F0E020812068208390932C
:1004F0008900809388000895E0E8F0E02081206280
:10050000208390938B0080938A000895E1EBF0E0C4
:10051000808184608083E0EBF0E080818160808373
:10052000539A239A0895E0EBF0E0908190689083CD
:100530008093B3000895E0EBF0E0908190629083A7
:100540008093B40008958091C10088618093C100B8
:100550008091C20086608093C20087E68093C400C9
:100560001092C5008091C10080688093C10078948A
:100570008091C00085FFFCCF80E091E08093C600B1
:100580000895982F8091C00085FFFCCF9093C600FE
:100590008091C00085FFFCCF83E091E08093C6008E
:1005A0000895282F8091C00085FFFCCF2093C600BE
:1005B0008091C00085FFFCCF9093C6008091C00061
:1005C00085FFFCCF83E091E08093C6000895FC0195
:1005D00007C08091C00085FFFCCF9093C600319684
:1005E00090819923B1F78091C00085FFFCCF83E013
:1005F00091E08093C60008958091C1008068809347
:10060000C100789483B7816083BF889583B78E7F5C
:1006100083BFF894E0910601F0910701309719F437
:100620008091C70303C0E55FFE4F80818D3009F4E0
:100630008AE008951F920F920FB60F9211242F9304
:100640008F939F93EF93FF93809106019091070101
:100650002091C600FC01E45FFE4F20830196909339
:100660000701809306018C5B924021F410920701F0
:1006700010920601FF91EF919F918F912F910F9012
:0C0680000FBE0F901F901895F894FFCF4C
:06068C000D0A000A0D003A
:00000001FF
