:100000000C9434000C9451000C9451000C94510049
:100010000C9451000C9451000C9451000C9451001C
:100020000C9451000C944E030C9451000C9451000C
:100030000C9451000C9451000C9451000C945100FC
:100040000C94B6060C9451000C943D0A0C9451008B
:100050000C9451000C9453000C9451000C945100DA
:100060000C9451000C94510011241FBECFEFD8E026
:10007000DEBFCDBF11E0A0E0B1E0E8EFF4E102C0E7
:1000800005900D92A030B107D9F713E0A0E0B1E0E0
:1000900001C01D92A23FB107E1F70E94E0060C9457
:1000A0007A0A0C9400001F920F920FB60F9211243F
:1000B000CF93DF93CDB7DEB7DF91CF910F900FBE17
:1000C0000F901F901895CF93DF930F92CDB7DEB7A7
:1000D00089838AE790E02AE730E0F90120812760F0
:1000E000FC0120838CE790E02CE730E0F9012081CF
:1000F0002064FC0120838981882349F08CE790E00B
:100100002CE730E0F90120812062FC0120838AE79E
:1001100090E02AE730E0F90120812062FC01208391
:100120008AE790E02AE730E0F90120812068FC01AD
:1001300020838AE790E02AE730E0F90120812860F7
:10014000FC0120838CE790E02CE730E0F90120816E
:10015000207FFC0120838AE790E02AE730E0F90164
:1001600020812064FC0120830F90DF91CF910895BE
:10017000CF93DF93CDB7DEB78AE790E02AE730E090
:10018000F90120812F7BFC012083DF91CF9108951D
:10019000CF93DF930F92CDB7DEB789838AE790E0E4
:1001A0002AE730E0F90120812F7BFC01208389813F
:1001B000992787FD90958430910509F471C08530A9
:1001C00091058CF48130910549F1823091051CF440
:1001D0000097D1F0E8C08230910599F18330910504
:1001E00009F44BC0E0C08630910509F49AC086300E
:1001F00091050CF471C08730910509F4AEC08830C8
:10020000910509F4BDC0CFC08CE790E02CE730E049
:10021000F9012081207FFC012083C5C08CE790E09C
:100220002CE730E0F90120812160FC0120838CE77C
:1002300090E02CE730E0F9012081217FFC01208350
:10024000B2C08CE790E02CE730E0F90120812E7FEE
:10025000FC0120838CE790E02CE730E0F90120815D
:100260002260FC0120838CE790E02CE730E0F9016C
:100270002081237FFC01208396C08CE790E02CE74F
:1002800030E0F90120812360FC0120838CE790E0BD
:100290002CE730E0F9012081237FFC01208383C01B
:1002A0008CE790E02CE730E0F90120812C7FFC0105
:1002B00020838CE790E02CE730E0F9012081246076
:1002C000FC0120838CE790E02CE730E0F9012081ED
:1002D000277FFC01208367C08CE790E02CE730E0AB
:1002E000F90120812160FC0120838CE790E02CE75C
:1002F00030E0F90120812D7FFC0120838CE790E024
:100300002CE730E0F90120812460FC0120838CE798
:1003100090E02CE730E0F9012081277FFC01208369
:1003200042C08CE790E02CE730E0F90120812E7F7D
:10033000FC0120838CE790E02CE730E0F90120817C
:100340002660FC0120838CE790E02CE730E0F90187
:100350002081277FFC01208326C08CE790E02CE7DA
:1003600030E0F90120812760FC0120838CE790E0D8
:100370002CE730E0F9012081277FFC01208313C0A6
:100380008CE790E02CE730E0F9012081287FFC0128
:1003900020838CE790E02CE730E0F9012081286091
:1003A000FC01208300008AE790E02AE730E0F901B1
:1003B00020812064FC0120830F90DF91CF9108956C
:1003C000CF93DF93CDB7DEB70E94420982E00E944F
:1003D000140781E00E9463000E9427040E943008F5
:1003E0008AE290E02AE230E0F90120812460FC01F9
:1003F00020838BE290E02BE230E0F9012081246041
:10040000FC0120838AE290E02AE230E0F9012081B9
:100410002062FC0120838AE290E02AE230E0F901C8
:1004200020812064FC0120838BE290E02BE230E00D
:10043000F90120812F79FC0120830E9428030E946A
:10044000E605DF91CF910895CF93DF9300D000D0E0
:10045000CDB7DEB79A8389837C836B8389819A8148
:100460000097F9F48B819C818130910599F4898101
:100470009A8188539C4FFC018081813009F457C0D8
:100480000E94610889819A8188539C4F21E0FC0178
:10049000208354C089819A8188539C4FFC0110822B
:1004A0004DC089819A8181309105F1F48B819C81C5
:1004B0008130910591F489819A8188539C4FFC0188
:1004C00080818130B1F10E94710889819A818853BD
:1004D0009C4F21E0FC01208331C089819A8188539F
:1004E0009C4FFC0110822AC089819A81823091053B
:1004F00011F58B819C818130910591F489819A81DC
:1005000088539C4FFC0180818130B9F00E948108A2
:1005100089819A8188539C4F21E0FC0120830EC081
:1005200089819A8188539C4FFC01108207C000008A
:1005300005C0000003C0000001C000000F900F9034
:100540000F900F90DF91CF910895CF93DF93CDB7A8
:10055000DEB789E290E0FC01808189E290E0FC0155
:10056000808189E290E0FC018081882F90E0887092
:1005700090700097D9F089E290E0FC018081882F8B
:1005800090E080719070009789F08091CE038F5F2A
:100590008093CE038091CE038B3008F454C082E068
:1005A00090E061E070E00E9424024FC01092CE0300
:1005B00082E090E060E070E00E94240289E290E036
:1005C000FC018081882F90E088709070009781F006
:1005D0008091CC038F5F8093CC038091CC038B30D0
:1005E00078F080E090E061E070E00E9424022DC08D
:1005F0001092CC0380E090E060E070E00E94240262
:1006000089E290E0FC018081882F90E080719070F9
:10061000009781F08091CD038F5F8093CD0380910F
:10062000CD038B3088F081E090E061E070E00E94C3
:1006300024020BC01092CD0381E090E060E070E0F6
:100640000E94240201C000000000DF91CF910895B4
:10065000CF93DF93CDB7DEB78AE290E02AE230E0B5
:10066000F9012081277EFC01208382EB90E0FC01D0
:10067000108281EB90E021EB30E0F90120812460D1
:10068000FC01208380E790E020E730E0F901208141
:100690002160FC012083DF91CF9108951F920F927A
:1006A0000FB60F9211242F933F934F935F936F9345
:1006B0007F938F939F93AF93BF93EF93FF93CF93CA
:1006C000DF93CDB7DEB70E94A502DF91CF91FF91F6
:1006D000EF91BF91AF919F918F917F916F915F91BA
:1006E0004F913F912F910F900FBE0F901F90189533
:1006F000CF93DF9300D00F92CDB7DEB789837B8392
:100700006A838981992787FD909582349105B1F09C
:100710008434910531F58AE290E02AE230E0F90173
:100720002081422F21E030E00A8002C0220F331FD7
:100730000A94E2F7242BFC01208313C084E290E0AA
:1007400024E230E0F9012081422F21E030E00A80EC
:1007500002C0220F331F0A94E2F7242BFC012083EE
:1007600000000F900F900F90DF91CF910895CF93DD
:10077000DF9300D000D0CDB7DEB789837B836A8357
:100780004C838981992787FD90958234910571F179
:100790008434910509F054C08C81882399F08BE250
:1007A00090E02BE230E0F9012081422F21E030E09F
:1007B0000A8002C0220F331F0A94E2F7242BFC01A7
:1007C00020833EC08BE290E02BE230E0F9012081F3
:1007D000422F21E030E00A8002C0220F331F0A942A
:1007E000E2F720952423FC0120832AC08C818823F2
:1007F00099F085E290E025E230E0F9012081422F76
:1008000021E030E00A8002C0220F331F0A94E2F791
:10081000242BFC01208313C085E290E025E230E028
:10082000F9012081422F21E030E00A8002C0220F2E
:10083000331F0A94E2F720952423FC012083000053
:100840000F900F900F900F90DF91CF910895CF935D
:10085000DF93CDB7DEB789EB90E0FC01108288EB27
:1008600090E028E4FC012083DF91CF910895CF939D
:10087000DF930F92CDB7DEB789838981882F90E00F
:100880008130910559F08230910571F0009799F40B
:100890008CEB90E024EAFC0120830DC08CEB90E00F
:1008A00024E8FC01208307C08CEB90E024E9FC01E4
:1008B000208380E00CC000008CEB90E0FC01808184
:1008C0008823D4F789EB90E0FC018081887F0F902A
:1008D000DF91CF910895CF93DF93CDB7DEB72897FF
:1008E0000FB6F894DEBF0FBECDBF9D838C837F8390
:1008F0006E83488719828FEF8A8301C0000081E0F0
:100900009981923308F480E099819F5F99838823CD
:1009100029F08A81992787FD90959DC080E00E94EB
:1009200037048B838B81883349F38B81883021F0A6
:100930008B81803109F078C08BEB90E02C81FC0139
:10094000208381E00E9437048B838B818032B9F24F
:100950008B818833A1F28B81883109F067C088854B
:10096000882331F08BEB90E020E6FC01208305C06A
:100970008BEB90E020E4FC01208381E00E943704AF
:100980008B838B81883209F053C08BEB90E02E81F2
:10099000FC01208381E00E9437048B838B818832A5
:1009A00009F048C08BEB90E02E813F81232F332745
:1009B000FC01208381E00E9437048B838B81883285
:1009C000D9F58885882331F08BEB90E020E6FC0197
:1009D000208305C08BEB90E020E4FC01208381E0C4
:1009E0000E9437048B838B81883241F58BEB90E03A
:1009F0002E81FC01208381E00E9437048B838B8150
:100A00008832F1F48BEB90E02E813F81232F332746
:100A1000FC01208381E00E9437048B838B81883224
:100A200089F481E08A830FC000000DC000000BC074
:100A3000000009C0000007C0000005C0000003C09E
:100A4000000001C0000082E00E9437048B838A818D
:100A5000992787FD909528960FB6F894DEBF0FBEB4
:100A6000CDBFDF91CF910895CF93DF93CDB7DEB7A0
:100A70002A970FB6F894DEBF0FBECDBF9A8789873D
:100A800019828FEF8A8301C0000081E0998192333F
:100A900008F480E099819F5F9983882329F08A81F7
:100AA000992787FD909589C080E00E9437048B8349
:100AB0008B81883349F38B81883021F08B818031A1
:100AC00009F066C08BEB90E029852160FC01208352
:100AD00081E00E9437048B838B818032B1F28B815D
:100AE000883399F28B81883109F054C08BEB90E008
:100AF000FC0180818C838C81882F90E0909306018B
:100B0000809305018B81883209F046C08BEB90E021
:100B1000FC0180818D838B81883209F03FC08BEB93
:100B200090E0FC0180818E838D81282F30E08E81C2
:100B3000882F90E0892F990F990B822B932B9093FC
:100B40000801809307018B81883251F58BEB90E08F
:100B5000FC0180818F838B81883221F58BEB90E0C3
:100B6000FC01808188878F81282F30E08885882F3D
:100B700090E0892F990F990B822B932B90930A0168
:100B8000809309018B81883279F481E08A830DC0DA
:100B900000000BC0000009C0000007C0000005C035
:100BA000000003C0000001C0000082E00E94370482
:100BB0008B838A81992787FD90952A960FB6F894A2
:100BC000DEBF0FBECDBFDF91CF910895CF93DF93EE
:100BD000CDB7DEB786E490E0FC01108285E490E0BA
:100BE00025E430E0F90120812660FC0120838EE6B7
:100BF00090E02EE630E0F90120812160FC012083A5
:100C000086E099E09093E0038093DF038AE199E026
:100C10009093E2038093E10388E299E09093E403E8
:100C20008093E3038EE299E09093E6038093E503DB
:100C30008CE399E09093E8038093E7031092ED032F
:100C40008091DF039091E0038F939F930895CF935A
:100C5000DF930F92CDB7DEB7F8948091ED038983CF
:100C60008981843000F119820AC08981882F90E03F
:100C700087519C4FFC01108289818F5F8983898114
:100C8000853098F3198289818093ED038981882FBB
:100C900090E0880F991F81529C4FFC0180819181C7
:100CA0008F939F9308958981882F90E087519C4F5F
:100CB000FC018081882389F089818F5F8983898104
:100CC0008093ED038981882F90E0880F991F8152CE
:100CD0009C4FFC0180819181E3CF8091EE03909144
:100CE000EF03A091F003B091F1030196A11DB11D96
:100CF0008093EE039093EF03A093F003B093F1037E
:100D00008091EE039091EF03A091F003B091F10375
:100D10008038F4E89F07FEE1AF07F0E0BF070CF171
:100D20008981882F90E087519C4F21E0FC0120832E
:100D300089818F5F89831092EE031092EF031092E6
:100D4000F0031092F10389818093ED038981882F4C
:100D500090E0880F991F81529C4FFC018081918106
:100D60009FCF00000F90DF91CF9108951F920F92B7
:100D70000FB60F9211242F933F934F935F936F936E
:100D80007F938F939F93AF93BF93EF93FF93CF93F3
:100D9000DF93CDB7DEB70E942706DF91CF91FF9199
:100DA000EF91BF91AF919F918F917F916F915F91E3
:100DB0004F913F912F910F900FBE0F901F9018955C
:100DC000CF93DF93CDB7DEB7F8940E94E00178941B
:100DD000FFCFCF93DF93CDB7DEB785E490E025E476
:100DE00030E0F90120812360FC01208384E490E05D
:100DF00024E430E0F90120812160FC0120838AE2B3
:100E000090E02AE230E0F90120812062FC01208399
:100E10008AE290E02AE230E0F90120812064FC01BE
:100E20002083DF91CF910895CF93DF930F92CDB7B9
:100E3000DEB789838981992787FD90958130910557
:100E4000A1F0823091051CF4009741F017C0823068
:100E5000910571F08330910571F010C00E94E90690
:100E60000E9442070E946D0709C00E94E90606C061
:100E70000E94420703C00E946D0700000F90DF919F
:100E8000CF910895CF93DF93CDB7DEB781E890E09F
:100E900021E830E0F90120812360FC01208380E813
:100EA00090E020E830E0F90120812960FC012083F6
:100EB00084E290E024E230E0F90120812260FC012C
:100EC000208384E290E024E230E0F9012081246074
:100ED000FC012083DF91CF910895CF93DF93CDB7AD
:100EE000DEB781EB90E021EB30E0F9012081246056
:100EF000FC01208380EB90E020EB30E0F9012081C1
:100F00002160FC0120838AE290E02AE230E0F901CE
:100F100020812860FC01208384E290E024E230E01C
:100F2000F90120812860FC012083DF91CF91089591
:100F3000CF93DF930F92CDB7DEB7898384E490E03F
:100F400024E430E0F90120812068FC01208387E45B
:100F500090E02981FC0120830F90DF91CF910895CB
:100F6000CF93DF930F92CDB7DEB7898384E490E00F
:100F700024E430E0F90120812062FC01208388E430
:100F800090E02981FC0120830F90DF91CF9108959B
:100F9000CF93DF9300D0CDB7DEB79A83898380E803
:100FA00090E020E830E0F90120812068FC012083F6
:100FB00088E890E029813A81FC01318320830F90F9
:100FC0000F90DF91CF910895CF93DF9300D0CDB7ED
:100FD000DEB79A83898380E890E020E830E0F90169
:100FE00020812062FC0120838AE890E029813A81F7
:100FF000FC01318320830F900F90DF91CF910895F2
:10100000CF93DF930F92CDB7DEB7898380EB90E06B
:1010100020EB30E0F90120812068FC01208383EB84
:1010200090E02981FC0120830F90DF91CF910895FA
:10103000CF93DF930F92CDB7DEB7898380EB90E03B
:1010400020EB30E0F90120812062FC01208384EB59
:1010500090E02981FC0120830F90DF91CF910895CA
:10106000CF93DF93CDB7DEB784E290E024E230E0A7
:10107000F9012081FC0120838AE290E02AE230E03D
:10108000F90120812D7FFC01208382E462E070E081
:101090000E94780382E461E070E00E94780382E4B9
:1010A00064E070E00E94780382E463E070E00E94F4
:1010B000780382E465E070E00E947803DF91CF91CD
:1010C0000895CF93DF93CDB7DEB780910B018B3FAF
:1010D00028F480910B018B5F80930B01DF91CF91FE
:1010E0000895CF93DF93CDB7DEB780910B018530A4
:1010F00028F080910B01855080930B01DF91CF91F7
:101100000895CF93DF93CDB7DEB7DF91CF910895E8
:10111000CF93DF93CDB7DEB78091010186958093A1
:10112000040189E790E0FC0180818093CB03109259
:10113000000143C089E790E0FC018081282F30E066
:1011400080910101882F90E08C599F4F821793075F
:101150005CF489E790E0FC018081982F969580915E
:101160000401890F8093CB0389E790E0FC01808123
:10117000282F30E080910101882F90E08456904024
:10118000281739075CF489E790E0FC018081982FEB
:10119000969580910401890F8093CB038091000183
:1011A000882F90E02091CB0381539C4FFC0120833A
:1011B000809100018F5F8093000180910001813157
:1011C00008F4B8CF1092000112C080910001882F5E
:1011D00090E081539C4FFC01908180910101890F27
:1011E00080930101809100018F5F809300018091C5
:1011F0000001813150F38091010182958F708093BD
:10120000010180910101DF91CF910895CF93DF9388
:10121000CDB7DEB780910B01882F90E00E94C80700
:1012200081E08093E9038091E7039091E8038F9335
:101230009F930895CF93DF93CDB7DEB781E080937E
:10124000EA038091E7039091E8038F939F930895B9
:10125000CF93DF93CDB7DEB77894FFCFCF93DF93F3
:10126000CDB7DEB781E08093EC038091E7039091E6
:10127000E8038F939F930895CF93DF93CDB7DEB7A5
:101280007894FFCFCF93DF93CDB7DEB781EC90E0BA
:1012900021EC30E0F90120812861FC01208382ECFF
:1012A00090E022EC30E0F90120812660FC012083EF
:1012B00084EC90E027E6FC01208385EC90E0FC01C3
:1012C000108281EC90E021EC30E0F901208120686F
:1012D000FC012083DF91CF910895CF93DF930F928C
:1012E000CDB7DEB78983000080EC90E0FC018081FF
:1012F000882F90E0807290700097B1F386EC90E0B8
:101300002981FC012083000080EC90E0FC018081B9
:10131000882F90E0807290700097B1F386EC90E097
:101320002AE0FC0120830F90DF91CF910895CF93A5
:10133000DF9300D0CDB7DEB79A838983000080ECBD
:1013400090E0FC018081882F90E08072907000977F
:10135000B1F386EC90E02981FC012083000080EC51
:1013600090E0FC018081882F90E08072907000975F
:10137000B1F386EC90E029813A81232F3327FC01D9
:101380002083000080EC90E0FC018081882F90E0B9
:10139000807290700097B1F386EC90E02AE0FC0137
:1013A00020830F900F90DF91CF910895CF93DF931B
:1013B00000D0CDB7DEB79A83898318C0000080ECD7
:1013C00090E0FC018081882F90E0807290700097FF
:1013D000B1F386EC90E029813A81F9012081FC018A
:1013E000208389819A8101969A83898389819A8150
:1013F000FC018081882311F7000080EC90E0FC0163
:101400008081882F90E0807290700097B1F386EC15
:1014100090E02AE0FC0120830F900F90DF91CF91A4
:101420000895CF93DF930F92CDB7DEB781EC90E0B4
:1014300021EC30E0F90120812068FC0120838091BB
:10144000020190910301009721F48091C7038983E1
:101450000AC080910201909103010197845F9E4F21
:10146000FC018081898389818D3011F48AE0898330
:1014700089810F90DF91CF9108951F920F920FB63F
:101480000F9211242F933F938F939F93EF93FF938A
:10149000CF93DF93CDB7DEB7809102019091030126
:1014A00026EC30E0F9012081845F9E4FFC0120830F
:1014B0008091020190910301019690930301809322
:1014C00002018091020190910301F2E08C3B9F07A1
:1014D00021F41092030110920201DF91CF91FF914C
:1014E000EF919F918F913F912F910F900FBE0F9091
:0814F0001F901895F894FFCF3E
:00000001FF
