:100000000C9434000C9451000C9451000C94510049
:100010000C9451000C9451000C9451000C9451001C
:100020000C9451000C94AB020C9451000C945100B0
:100030000C9451000C9451000C9451000C945100FC
:100040000C94B8050C9451000C9481080C94510048
:100050000C9451000C9453000C9451000C945100DA
:100060000C9451000C94510011241FBECFEFD8E026
:10007000DEBFCDBF11E0A0E0B1E0E0E8F1E102C0F9
:1000800005900D92A030B107D9F713E0A0E0B1E0E0
:1000900001C01D92A23DB107E1F70E94E2050C9458
:1000A000BE080C9400001F920F920FB60F921124FD
:1000B000CF93DF93CDB7DEB7DF91CF910F900FBE17
:1000C0000F901F901895CF93DF930F92CDB7DEB7A7
:1000D00089838AE790E02AE730E0F90120812760F0
:1000E000FC0120838CE790E02CE730E0F9012081CF
:1000F0002064FC0120838981882349F08CE790E00B
:100100002CE730E0F90120812062FC0120838AE79E
:1001100090E02AE730E0F90120812062FC01208391
:100120008AE790E02AE730E0F90120812068FC01AD
:1001300020838AE790E02AE730E0F90120812860F7
:10014000FC01208378948AE790E02AE730E0F90107
:1001500020812064FC0120830F90DF91CF910895CE
:10016000CF93DF93CDB7DEB78AE790E02AE730E0A0
:10017000F90120812F7BFC012083DF91CF9108952D
:10018000CF93DF930F92CDB7DEB789838AE790E0F4
:100190002AE730E0F90120812F7BFC01208389814F
:1001A000992787FD90958430910509F471C08530B9
:1001B00091058CF48130910549F1823091051CF450
:1001C0000097D1F0E8C08230910599F18330910514
:1001D00009F44BC0E0C08630910509F49AC086301E
:1001E00091050CF471C08730910509F4AEC08830D8
:1001F000910509F4BDC0CFC08CE790E02CE730E05A
:10020000F9012081207FFC012083C5C08CE790E0AC
:100210002CE730E0F90120812160FC0120838CE78C
:1002200090E02CE730E0F9012081217FFC01208360
:10023000B2C08CE790E02CE730E0F90120812E7FFE
:10024000FC0120838CE790E02CE730E0F90120816D
:100250002260FC0120838CE790E02CE730E0F9017C
:100260002081237FFC01208396C08CE790E02CE75F
:1002700030E0F90120812360FC0120838CE790E0CD
:100280002CE730E0F9012081237FFC01208383C02B
:100290008CE790E02CE730E0F90120812C7FFC0115
:1002A00020838CE790E02CE730E0F9012081246086
:1002B000FC0120838CE790E02CE730E0F9012081FD
:1002C000277FFC01208367C08CE790E02CE730E0BB
:1002D000F90120812160FC0120838CE790E02CE76C
:1002E00030E0F90120812D7FFC0120838CE790E034
:1002F0002CE730E0F90120812460FC0120838CE7A9
:1003000090E02CE730E0F9012081277FFC01208379
:1003100042C08CE790E02CE730E0F90120812E7F8D
:10032000FC0120838CE790E02CE730E0F90120818C
:100330002660FC0120838CE790E02CE730E0F90197
:100340002081277FFC01208326C08CE790E02CE7EA
:1003500030E0F90120812760FC0120838CE790E0E8
:100360002CE730E0F9012081277FFC01208313C0B6
:100370008CE790E02CE730E0F9012081287FFC0138
:1003800020838CE790E02CE730E0F90120812860A1
:10039000FC01208300008AE790E02AE730E0F901C1
:1003A00020812064FC0120830F90DF91CF9108957C
:1003B000CF93DF9300D0CDB7DEB789836A8389817D
:1003C000992787FD9095009721F081309105C1F024
:1003D0002EC08A81992787FD9095009751F0813032
:1003E000910571F484E465E070E040E00E94D5027C
:1003F00007C084E465E070E041E00E94D50200009F
:100400008A81992787FD9095009751F08130910559
:1004100071F484E466E070E040E00E94D50207C019
:1004200084E466E070E041E00E94D50200000F9095
:100430000F90DF91CF910895CF93DF930F92CDB7B7
:10044000DEB789E290E0FC018081882F90E09C017A
:100450002870307089E290E0FC018081882F90E064
:1004600080719070822B932B009709F44AC089E227
:1004700090E0FC018081882F90E088709070009758
:1004800011F019820CC089E290E0FC018081882F74
:1004900090E080719070009711F081E089838981EC
:1004A000992787FD90959C012C533C4FF9012081A1
:1004B0002F5F8C539C4FFC0120838981992787FDF6
:1004C00090958C539C4FFC018081863070F089811F
:1004D000992787FD90958C539C4F27E0FC01208342
:1004E000898161E00E94D8010CC08981992787FD2C
:1004F00090958C539C4FFC011082898160E00E9492
:10050000D8010F90DF91CF910895CF93DF93CDB7AE
:10051000DEB78AE290E02AE230E0F9012081FC01B6
:10052000208382EB90E0FC01108281EB90E021EBD4
:1005300030E0F90120812460FC01208380E790E015
:1005400020E730E0F90120812160FC0120837894CC
:10055000DF91CF9108951F920F920FB60F92112441
:100560002F933F934F935F936F937F938F939F93BB
:10057000AF93BF93EF93FF93CF93DF93CDB7DEB7E6
:100580000E941C02DF91CF91FF91EF91BF91AF913B
:100590009F918F917F916F915F914F913F912F919B
:1005A0000F900FBE0F901F901895CF93DF9300D040
:1005B00000D0CDB7DEB789837B836A834C83898182
:1005C000992787FD90958234910509F440C08434C1
:1005D000910509F078C08AE290E02AE230E0F90162
:1005E0002081422F21E030E00A8002C0220F331F19
:1005F0000A94E2F7242BFC0120838C81882399F054
:100600008BE290E02BE230E0F9012081422F21E0E3
:1006100030E00A8002C0220F331F0A94E2F7242B35
:10062000FC01208350C08BE290E02BE230E0F90126
:100630002081422F21E030E00A8002C0220F331FC8
:100640000A94E2F720952423FC0120833CC084E235
:1006500090E024E230E0F9012081422F21E030E0F7
:100660000A8002C0220F331F0A94E2F7242BFC01F8
:1006700020838C81882399F085E290E025E230E0A8
:10068000F9012081422F21E030E00A8002C0220FD0
:10069000331F0A94E2F7242BFC01208313C085E268
:1006A00090E025E230E0F9012081422F21E030E0A6
:1006B0000A8002C0220F331F0A94E2F720952423F8
:1006C000FC01208300000F900F900F900F90DF919E
:1006D000CF910895CF93DF93CDB7DEB789EB90E04C
:1006E000FC01108288EB90E028E4FC012083DF917C
:1006F000CF910895CF93DF930F92CDB7DEB7898363
:100700008981882F90E08130910559F082309105E0
:1007100071F0009799F48CEB90E024EAFC012083BF
:100720000DC08CEB90E024E8FC01208307C08CEB2B
:1007300090E024E9FC01208380E00CC000008CEBF9
:1007400090E0FC0180818823D4F789EB90E0FC01E4
:100750008081887F0F90DF91CF910895CF93DF93B1
:10076000CDB7DEB728970FB6F894DEBF0FBECDBF6A
:100770009D838C837F836E83488719828FEF8A8362
:1007800001C0000081E09981923308F480E09981F2
:100790009F5F9983882329F08A81992787FD909507
:1007A0009DC080E00E947A038B838B81883349F35C
:1007B0008B81883021F08B81803109F078C08BEB00
:1007C00090E02C81FC01208381E00E947A038B83DE
:1007D0008B818032B9F28B818833A1F28B81883191
:1007E00009F067C08885882331F08BEB90E020E624
:1007F000FC01208305C08BEB90E020E4FC0120830A
:1008000081E00E947A038B838B81883209F053C088
:100810008BEB90E02E81FC01208381E00E947A0323
:100820008B838B81883209F048C08BEB90E02E815E
:100830003F81232F3327FC01208381E00E947A032C
:100840008B838B818832D9F58885882331F08BEBB7
:1008500090E020E6FC01208305C08BEB90E020E4D3
:10086000FC01208381E00E947A038B838B81883294
:1008700041F58BEB90E02E81FC01208381E00E940A
:100880007A038B838B818832F1F48BEB90E02E819D
:100890003F81232F3327FC01208381E00E947A03CC
:1008A0008B838B81883289F481E08A830FC00000BA
:1008B0000DC000000BC0000009C0000007C0000010
:1008C00005C0000003C0000001C0000082E00E94DB
:1008D0007A038B838A81992787FD909528960FB696
:1008E000F894DEBF0FBECDBFDF91CF910895CF93B7
:1008F000DF93CDB7DEB72A970FB6F894DEBF0FBEF1
:10090000CDBF9A87898719828FEF8A8301C0000043
:1009100081E09981923308F480E099819F5F998307
:10092000882329F08A81992787FD909589C080E0E6
:100930000E947A038B838B81883349F38B818830C3
:1009400021F08B81803109F066C08BEB90E0298526
:100950002160FC01208381E00E947A038B838B81DC
:100960008032B1F28B81883399F28B81883109F022
:1009700054C08BEB90E0FC0180818C838C81882FAC
:1009800090E090930301809302018B81883209F0FB
:1009900046C08BEB90E0FC0180818D838B81883297
:1009A00009F03FC08BEB90E0FC0180818E838D814C
:1009B000282F30E08E81882F90E0892F990F990B96
:1009C000822B932B90930501809304018B818832B5
:1009D00051F58BEB90E0FC0180818F838B81883215
:1009E00021F58BEB90E0FC01808188878F81282F97
:1009F00030E08885882F90E0892F990F990B822B02
:100A0000932B90930701809306018B81883279F4B0
:100A100081E08A830DC000000BC0000009C0000007
:100A200007C0000005C0000003C0000001C00000B6
:100A300082E00E947A038B838A81992787FD9095B3
:100A40002A960FB6F894DEBF0FBECDBFDF91CF91CF
:100A50000895CF93DF93CDB7DEB786E490E0FC0135
:100A6000108285E490E025E430E0F90120812260E5
:100A7000FC0120838EE690E02EE630E0F901208133
:100A80002160FC012083789480E597E09093C60371
:100A90008093C50388E597E09093C8038093C703CC
:100AA00080E697E09093CA038093C90388E697E0B5
:100AB0009093CC038093CB031092D1038091C50314
:100AC0009091C603FC0109958093CD03DF91CF91EE
:100AD00008950F931F93CF93DF9300D0CDB7DEB768
:100AE0008091D103898389818530B8F019820AC049
:100AF0008A81882F90E083539C4FFC0110828A8169
:100B00008F5F8A838A81853098F78091C5039091A1
:100B1000C603FC0109958093CD038981882F90E05D
:100B200083539C4FFC0180818823C1F089818F5FB2
:100B300089838981082F10E08981882F90E0880FB0
:100B4000991F8B539C4FFC0180819181FC01099579
:100B5000282FC80183539C4FFC01208389818093F7
:100B6000D1030F900F90DF91CF911F910F910895B6
:100B70001F920F920FB60F9211242F933F934F9312
:100B80005F936F937F938F939F93AF93BF93EF93F5
:100B9000FF93CF93DF93CDB7DEB70E946905DF9156
:100BA000CF91FF91EF91BF91AF919F918F917F91E5
:100BB0006F915F914F913F912F910F900FBE0F90CA
:100BC0001F901895CF93DF93CDB7DEB70E947007C3
:100BD00082E00E94330681E00E9463000E946A0363
:100BE0008AE290E02AE230E0F90120812460FC01F1
:100BF00020838BE290E02BE230E0F9012081246039
:100C0000FC01208378940E9485020E942905FFCF71
:100C1000CF93DF93CDB7DEB785E490E025E430E0F5
:100C2000F90120812360FC01208384E490E024E426
:100C300030E0F90120812160FC0120838AE290E00C
:100C40002AE230E0F90120812062FC0120838AE25F
:100C500090E02AE230E0F90120812064FC01208349
:100C6000DF91CF910895CF93DF930F92CDB7DEB789
:100C700089838981992787FD909581309105A1F01D
:100C8000823091051CF4009741F017C08230910525
:100C900071F08330910571F010C00E9408060E9427
:100CA00062060E948D0609C00E94080606C00E94C6
:100CB000620603C00E948D06000078940F90DF91B9
:100CC000CF910895CF93DF93CDB7DEB781E890E061
:100CD00021E830E0F90120812360FC01208380E8D5
:100CE00090E020E830E0F90120812360FC012083BE
:100CF00084E290E024E230E0F90120812260FC01EE
:100D0000208384E290E024E230E0F9012081246035
:100D1000FC012083DF91CF910895CF93DF93CDB76E
:100D2000DEB781EB90E021EB30E0F9012081246017
:100D3000FC01208380EB90E020EB30E0F901208182
:100D40002160FC0120838AE290E02AE230E0F90190
:100D500020812860FC01208384E290E024E230E0DE
:100D6000F90120812860FC012083DF91CF91089553
:100D7000CF93DF930F92CDB7DEB7898384E490E001
:100D800024E430E0F90120812068FC01208387E41D
:100D900090E02981FC0120830F90DF91CF9108958D
:100DA000CF93DF930F92CDB7DEB7898384E490E0D1
:100DB00024E430E0F90120812062FC01208388E4F2
:100DC00090E02981FC0120830F90DF91CF9108955D
:100DD000CF93DF9300D0CDB7DEB79A83898380E8C5
:100DE00090E020E830E0F90120812068FC012083B8
:100DF00088E890E029813A81FC01318320830F90BB
:100E00000F90DF91CF910895CF93DF9300D0CDB7AE
:100E1000DEB79A83898380E890E020E830E0F9012A
:100E200020812062FC0120838AE890E029813A81B8
:100E3000FC01318320830F900F90DF91CF910895B3
:100E4000CF93DF930F92CDB7DEB7898380EB90E02D
:100E500020EB30E0F90120812068FC01208383EB46
:100E600090E02981FC0120830F90DF91CF910895BC
:100E7000CF93DF930F92CDB7DEB7898380EB90E0FD
:100E800020EB30E0F90120812062FC01208384EB1B
:100E900090E02981FC0120830F90DF91CF9108958C
:100EA000CF93DF93CDB7DEB781E0DF91CF91089587
:100EB000CF93DF93CDB7DEB781E0DF91CF91089577
:100EC000CF93DF93CDB7DEB781E0DF91CF91089567
:100ED000CF93DF93CDB7DEB781E0DF91CF91089557
:100EE000CF93DF93CDB7DEB781EC90E021EC30E01B
:100EF000F90120812861FC01208382EC90E022EC42
:100F000030E0F90120812660FC01208384EC90E030
:100F100027E6FC01208385EC90E0FC01108281EC47
:100F200090E021EC30E0F90120812068FC01208371
:100F30007894DF91CF910895CF93DF930F92CDB73F
:100F4000DEB78983000080EC90E0FC018081882F6F
:100F500090E0807290700097B1F386EC90E0298168
:100F6000FC012083000080EC90E0FC018081882F50
:100F700090E0807290700097B1F386EC90E02AE0E8
:100F8000FC0120830F90DF91CF910895CF93DF93E1
:100F900000D0CDB7DEB79A838983000080EC90E063
:100FA000FC018081882F90E0807290700097B1F3EF
:100FB00086EC90E02981FC012083000080EC90E029
:100FC000FC018081882F90E0807290700097B1F3CF
:100FD00086EC90E029813A81232F3327FC0120837E
:100FE000000080EC90E0FC018081882F90E080720E
:100FF00090700097B1F386EC90E02AE0FC0120832A
:101000000F900F90DF91CF910895CF93DF9300D091
:10101000CDB7DEB79A83898318C0000080EC90E0DA
:10102000FC018081882F90E0807290700097B1F36E
:1010300086EC90E029813A81F9012081FC0120832E
:1010400089819A8101969A83898389819A81FC0199
:101050008081882311F7000080EC90E0FC01808102
:10106000882F90E0807290700097B1F386EC90E04A
:101070002AE0FC0120830F900F90DF91CF9108951B
:10108000CF93DF930F92CDB7DEB781EC90E021ECE8
:1010900030E0F90120812068FC012083789483E509
:1010A00090E023E530E0F90120812160FC012083FC
:1010B000889583E590E023E530E0F90120812E7FDB
:1010C000FC012083F8948091000190910101009728
:1010D00021F48091C30389830AC08091000190911B
:1010E00001010197885F9E4FFC018081898389817E
:1010F0008D3011F48AE0898389810F90DF91CF913F
:1011000008951F920F920FB60F9211242F933F93C1
:101110008F939F93EF93FF93CF93DF93CDB7DEB77A
:10112000809100019091010126EC30E0F9012081CD
:10113000885F9E4FFC012083809100019091010106
:10114000019690930101809300018091000190919C
:101150000101F2E08C3B9F0721F4109201011092F3
:101160000001DF91CF91FF91EF919F918F913F917E
:101170002F910F900FBE0F901F901895F894FFCFEE
:00000001FF
