:100000000C9434000C9451000C9451000C94510049
:100010000C9451000C9451000C9451000C9451001C
:100020000C9451000C9451000C9451000C9451000C
:100030000C9451000C9451000C9451000C945100FC
:100040000C9451000C9451000C94A5060C94510092
:100050000C9451000C9453000C9451000C945100DA
:100060000C9451000C94510011241FBECFEFD8E026
:10007000DEBFCDBF11E0A0E0B1E0E6ECFDE002C0E4
:1000800005900D92A630B107D9F713E0A6E0B1E0D4
:1000900001C01D92A93CB107E1F70E9426040C940F
:1000A000E1060C9400001F920F920FB60F921124DC
:1000B000DF93CF93CDB7DEB7CF91DF910F900FBE17
:1000C0000F901F901895DF93CF930F92CDB7DEB7A7
:1000D0008983AAE7B0E0EAE7F0E0808187608C934B
:1000E000ACE7B0E0ECE7F0E0808180648C9389813C
:1000F000882339F0ACE7B0E0ECE7F0E08081806283
:100100008C93AAE7B0E0EAE7F0E0808180628C930C
:10011000AAE7B0E0EAE7F0E0808180688C93AAE784
:10012000B0E0EAE7F0E0808188608C937894AAE7F9
:10013000B0E0EAE7F0E0808180648C930F90CF918B
:10014000DF910895DF93CF93CDB7DEB7AAE7B0E094
:10015000EAE7F0E080818F7B8C93CF91DF91089567
:10016000DF93CF9300D00F92CDB7DEB78983AAE794
:10017000B0E0EAE7F0E080818F7B8C938981282FC3
:10018000332727FD30953B832A838A819B818433E3
:10019000910509F476C02A813B8125333105E4F4C9
:1001A0008A819B8181339105C1F12A813B81223370
:1001B000310534F48A819B818033910531F1C7C0C8
:1001C0002A813B8122333105B9F18A819B818333B6
:1001D000910509F447C0BBC02A813B812633310514
:1001E00009F482C08A819B81863391050CF45FC03B
:1001F0002A813B812733310509F48CC08A819B8198
:100200008833910509F495C0A2C0ACE7B0E0ECE7F3
:10021000F0E08081807F8C939AC0ACE7B0E0ECE79F
:10022000F0E0808181608C93ACE7B0E0ECE7F0E037
:100230008081817F8C938BC0ACE7B0E0ECE7F0E08D
:1002400080818E7F8C93ACE7B0E0ECE7F0E08081BA
:1002500082608C93ACE7B0E0ECE7F0E08081837FD4
:100260008C9375C0ACE7B0E0ECE7F0E08081836090
:100270008C93ACE7B0E0ECE7F0E08081837F8C9377
:1002800066C0ACE7B0E0ECE7F0E080818C7F8C9357
:10029000ACE7B0E0ECE7F0E0808184608C93ACE701
:1002A000B0E0ECE7F0E08081877F8C9350C0ACE752
:1002B000B0E0ECE7F0E0808181608C93ACE7B0E0E7
:1002C000ECE7F0E080818D7F8C93ACE7B0E0ECE769
:1002D000F0E0808184608C93ACE7B0E0ECE7F0E084
:1002E0008081877F8C9333C0ACE7B0E0ECE7F0E02F
:1002F00080818E7F8C93ACE7B0E0ECE7F0E080810A
:1003000086608C93ACE7B0E0ECE7F0E08081877F1B
:100310008C931DC0ACE7B0E0ECE7F0E08081876033
:100320008C93ACE7B0E0ECE7F0E08081877F8C93C2
:100330000EC0ACE7B0E0ECE7F0E08081887F8C9302
:10034000ACE7B0E0ECE7F0E0808188608C93AAE74E
:10035000B0E0EAE7F0E0808180648C930F900F902A
:100360000F90CF91DF910895DF93CF9300D000D00D
:10037000CDB7DEB79A8389837C836B838B819C8125
:10038000009791F4A5E2B0E0E5E2F0E08081282F4B
:1003900081E090E0098002C0880F991F0A94E2F77B
:1003A000809582238C9310C0A5E2B0E0E5E2F0E0F6
:1003B0008081282F81E090E0098002C0880F991F7A
:1003C0000A94E2F7822B8C930F900F900F900F906E
:1003D000CF91DF910895DF93CF9300D000D0CDB7B8
:1003E000DEB79A8389837C836B838B819C810097A2
:1003F00091F4ABE2B0E0EBE2F0E08081282F81E005
:1004000090E0098002C0880F991F0A94E2F7809556
:1004100082238C9310C0ABE2B0E0EBE2F0E080818D
:10042000282F81E090E0098002C0880F991F0A946C
:10043000E2F7822B8C930F900F900F900F90CF913B
:10044000DF910895DF93CF93CDB7DEB727970FB62F
:10045000F894DEBF0FBECDBF89837B836A835D8343
:100460004C838981282F332727FD30953F832E83A6
:100470008E819F818234910571F12E813F812434D8
:10048000310509F04FC08C819D818130910589F43F
:10049000ABE2B0E0EBE2F0E08081282F81E090E079
:1004A0000A8002C0880F991F0A94E2F7822B8C936E
:1004B00039C0ABE2B0E0EBE2F0E08081282F81E0D0
:1004C00090E00A8002C0880F991F0A94E2F7809595
:1004D00082238C9327C08C819D818130910589F482
:1004E000A5E2B0E0E5E2F0E08081282F81E090E035
:1004F0000A8002C0880F991F0A94E2F7822B8C931E
:1005000011C0A5E2B0E0E5E2F0E08081282F81E0B3
:1005100090E00A8002C0880F991F0A94E2F7809544
:1005200082238C9327960FB6F894DEBF0FBECDBF03
:10053000CF91DF910895DF93CF93CDB7DEB7E9EB8D
:10054000F0E01082E8EBF0E088E48083CF91DF9167
:100550000895DF93CF9300D000D0CDB7DEB7898365
:100560008981282F30E03C832B838B819C818130D3
:10057000910571F02B813C812230310571F08B8126
:100580009C81009781F4ECEBF0E084EA80830BC05F
:10059000ECEBF0E084E8808306C0ECEBF0E084E96B
:1005A00080831A820BC0ECEBF0E080818823DCF7BB
:1005B000E9EBF0E08081982F987F9A838A810F90F1
:1005C0000F900F900F90CF91DF910895DF93CF930D
:1005D000CDB7DEB72B970FB6F894DEBF0FBECDBFF9
:1005E0009D838C837F836E8348871B828FEF8983F3
:1005F0001B868B81823310F021E02B878B818F5FEC
:100600008B833B85332341F08981282F332727FDB6
:1006100030953A87298786C080E00E94A9028A83A4
:100620008A81883329F38A81883021F08A81803158
:1006300009F06DC0EBEBF0E08C81808381E00E94DB
:10064000A9028A838A81803299F28A81883381F271
:100650008A81883109F05BC08885882329F0EBEB1B
:10066000F0E080E6808304C0EBEBF0E080E4808380
:1006700081E00E94A9028A838A81883209F047C0FA
:10068000EBEBF0E08E81808381E00E94A9028A83F7
:100690008A818832E1F5EBEBF0E08E819F81892F32
:1006A0009927808381E00E94A9028A838A81883207
:1006B00071F58885882329F0EBEBF0E080E68083F4
:1006C00004C0EBEBF0E080E4808381E00E94A902AB
:1006D0008A838A818832D9F4EBEBF0E08E818083C3
:1006E00081E00E94A9028A838A81883281F4EBEB3F
:1006F000F0E08E819F81892F9927808381E00E947D
:10070000A9028A838A81883211F481E0898382E098
:100710000E94A9028A838981282F332727FD3095DB
:100720003A87298789859A852B960FB6F894DEBF7C
:100730000FBECDBFCF91DF910895DF93CF93CDB79B
:10074000DEB72C970FB6F894DEBF0FBECDBF9A87E9
:10075000898718868FEF8E831C868885823310F0F8
:1007600081E08C8788858F5F88878C85882319F046
:100770008E818B8761C080E00E94A9028F838F8168
:10078000883351F38F81883021F08F81803109F0D7
:100790004DC0EBEBF0E089858160808381E00E94B1
:1007A000A9028F838F818032B9F28F818833A1F2C1
:1007B0008F818831D9F5EBEBF0E080818D838D81DD
:1007C000882F90E090930901809308018F818832EF
:1007D00069F5EBEBF0E080818C838F81883231F515
:1007E000EBEBF0E080818B838C81282F30E08B81D4
:1007F000882F90E0892F990F990B822B932B909340
:100800000B0180930A018F81883281F4EBEBF0E0D9
:1008100080818A838F81883249F4EBEBF0E080811C
:1008200089838F81883211F481E08E8382E00E9477
:10083000A9028F838E818B878B852C960FB6F894B7
:10084000DEBF0FBECDBFCF91DF910895DF93CF9371
:10085000CDB7DEB7AAE2B0E0EAE2F0E080818460E2
:100860008C93ABE2B0E0EBE2F0E0808184608C93AB
:100870000E945E0480E00E9463000E94A8050E941E
:100880009B02E9E2F0E080818C708093C803809144
:10089000C803813039F482E461E070E041E050E067
:1008A0000E9422028091C803882359F782E461E004
:1008B00070E040E050E00E942202E3CFDF93CF934C
:1008C000CDB7DEB7A5E4B0E0E5E4F0E08081836079
:1008D0008C93A4E4B0E0E4E4F0E0808181608C9348
:1008E000AAE2B0E0EAE2F0E0808180628C93AAE2C2
:1008F000B0E0EAE2F0E0808180648C93A1E8B0E0AF
:10090000E1E8F0E0808183608C93A0E8B0E0E0E86B
:10091000F0E0808183608C93A4E2B0E0E4E2F0E058
:10092000808182608C93A4E2B0E0E4E2F0E0808118
:1009300084608C93A1EBB0E0E1EBF0E08081846017
:100940008C93A0EBB0E0E0EBF0E0808181608C93D1
:10095000AAE2B0E0EAE2F0E0808188608C93A4E251
:10096000B0E0E4E2F0E0808188608C93CF91DF9189
:100970000895DF93CF93CDB7DEB7A5E4B0E0E5E40B
:10098000F0E0808183608C93A4E4B0E0E4E4F0E0E4
:10099000808181608C93AAE2B0E0EAE2F0E080819D
:1009A00080628C93AAE2B0E0EAE2F0E080818064A9
:1009B0008C93CF91DF910895DF93CF930F92CDB7B2
:1009C000DEB78983A4E4B0E0E4E4F0E080818068ED
:1009D0008C93E7E4F0E0898180830F90CF91DF91E1
:1009E0000895DF93CF930F92CDB7DEB78983A4E448
:1009F000B0E0E4E4F0E0808180628C93E8E4F0E031
:100A0000898180830F90CF91DF910895DF93CF93F9
:100A1000CDB7DEB7A1E8B0E0E1E8F0E08081836027
:100A20008C93A0E8B0E0E0E8F0E080818A618C93EC
:100A3000A4E2B0E0E4E2F0E0808182608C93A4E282
:100A4000B0E0E4E2F0E0808184608C93CF91DF91AC
:100A50000895DF93CF9300D0CDB7DEB79A83898313
:100A6000A0E8B0E0E0E8F0E0808180688C93E8E8FE
:100A7000F0E089819A81918380830F900F90CF91CC
:100A8000DF910895DF93CF9300D0CDB7DEB79A837F
:100A90008983A0E8B0E0E0E8F0E0808180628C9398
:100AA000EAE8F0E089819A81918380830F900F902A
:100AB000CF91DF910895DF93CF93CDB7DEB7A1EB50
:100AC000B0E0E1EBF0E0808184608C93A0EBB0E0DB
:100AD000E0EBF0E0808181608C93AAE2B0E0EAE292
:100AE000F0E0808188608C93A4E2B0E0E4E2F0E082
:100AF000808188608C93CF91DF910895DF93CF93AD
:100B00000F92CDB7DEB78983A0EBB0E0E0EBF0E069
:100B1000808180688C93E3EBF0E0898180830F9083
:100B2000CF91DF910895DF93CF930F92CDB7DEB7CA
:100B30008983A0EBB0E0E0EBF0E0808180628C93F1
:100B4000E4EBF0E0898180830F90CF91DF910895ED
:100B5000DF93CF93CDB7DEB7A1ECB0E0E1ECF0E0EE
:100B6000808188618C93A2ECB0E0E2ECF0E08081BF
:100B700086608C93E4ECF0E087E68083E5ECF0E0BF
:100B80001082A1ECB0E0E1ECF0E0808180688C9311
:100B90007894E0ECF0E08081882F90E08072907093
:100BA0000097B9F3E6ECF0E080E091E08083CF912C
:100BB000DF910895DF93CF930F92CDB7DEB789838E
:100BC000E0ECF0E08081882F90E0807290700097D8
:100BD000B9F3E6ECF0E089818083E0ECF0E080811D
:100BE000882F90E0807290700097B9F3E6ECF0E007
:100BF00083E091E080830F90CF91DF910895DF93A0
:100C0000CF9300D0CDB7DEB79A838983E0ECF0E0D4
:100C10008081882F90E0807290700097B9F3E6ECA5
:100C2000F0E089818083E0ECF0E08081882F90E023
:100C3000807290700097B9F3E6ECF0E089819A81B8
:100C4000892F99278083E0ECF0E08081882F90E065
:100C5000807290700097B9F3E6ECF0E083E091E0E9
:100C600080830F900F90CF91DF910895DF93CF9302
:100C700000D0CDB7DEB79A83898314C0E0ECF0E0F2
:100C80008081882F90E0807290700097B9F3A6EC75
:100C9000B0E0E981FA8180818C9389819A81019603
:100CA0009A838983E981FA818081882339F7E0EC8E
:100CB000F0E08081882F90E0807290700097B9F307
:100CC000E6ECF0E083E091E080830F900F90CF910D
:100CD000DF910895DF93CF930F92CDB7DEB7A1ECEC
:100CE000B0E0E1ECF0E0808180688C937894A3E53B
:100CF000B0E0E3E5F0E0808181608C938895A3E526
:100D0000B0E0E3E5F0E080818E7F8C93F8948091F1
:100D1000060190910701009721F48091C703898310
:100D20000AC080910601909107010197FC01E45FE0
:100D3000FE4F8081898389818D3011F48AE0898317
:100D400089810F90CF91DF9108951F920F920FB676
:100D50000F9211242F933F938F939F93EF93FF93C1
:100D6000DF93CF93CDB7DEB7209106013091070115
:100D7000E6ECF0E08081F901E45FFE4F8083809132
:100D80000601909107010196909307018093060157
:100D9000809106019091070122E08C3B920721F49B
:100DA0001092070110920601CF91DF91FF91EF9110
:100DB0009F918F913F912F910F900FBE0F901F9099
:060DC0001895F894FFCF26
:060DC6000D0A000A0D00F9
:00000001FF
